{
  "_format": "hh-sol-artifact-1",
  "contractName": "LiquidityProvider",
  "sourceName": "contracts/IndexLiquidityProvider.sol",
  "abi": [
    {
      "inputs": [
        {
          "internalType": "address",
          "name": "_indexCDPAddress",
          "type": "address"
        },
        {
          "internalType": "address",
          "name": "_usdcTokenAddress",
          "type": "address"
        },
        {
          "internalType": "address",
          "name": "_phxTokenAddress",
          "type": "address"
        },
        {
          "internalType": "address",
          "name": "_uniswapRouterAddress",
          "type": "address"
        }
      ],
      "stateMutability": "nonpayable",
      "type": "constructor"
    },
    {
      "inputs": [
        {
          "internalType": "uint256",
          "name": "usdcAmount",
          "type": "uint256"
        },
        {
          "internalType": "uint256",
          "name": "phxAmount",
          "type": "uint256"
        }
      ],
      "name": "addLiquidity",
      "outputs": [],
      "stateMutability": "nonpayable",
      "type": "function"
    },
    {
      "inputs": [
        {
          "internalType": "uint256",
          "name": "usdcAmount",
          "type": "uint256"
        }
      ],
      "name": "depositUSDCAndMintPHX",
      "outputs": [],
      "stateMutability": "nonpayable",
      "type": "function"
    },
    {
      "inputs": [],
      "name": "indexCDP",
      "outputs": [
        {
          "internalType": "contract IndexCDP",
          "name": "",
          "type": "address"
        }
      ],
      "stateMutability": "view",
      "type": "function"
    },
    {
      "inputs": [],
      "name": "phxToken",
      "outputs": [
        {
          "internalType": "contract IERC20",
          "name": "",
          "type": "address"
        }
      ],
      "stateMutability": "view",
      "type": "function"
    },
    {
      "inputs": [],
      "name": "uniswapRouter",
      "outputs": [
        {
          "internalType": "contract IUniswapV2Router02",
          "name": "",
          "type": "address"
        }
      ],
      "stateMutability": "view",
      "type": "function"
    },
    {
      "inputs": [],
      "name": "usdcToken",
      "outputs": [
        {
          "internalType": "contract IERC20",
          "name": "",
          "type": "address"
        }
      ],
      "stateMutability": "view",
      "type": "function"
    }
  ],
  "bytecode": "0x60806040523480156200001157600080fd5b5060405162000dc638038062000dc68339818101604052810190620000379190620001ae565b836000806101000a81548173ffffffffffffffffffffffffffffffffffffffff021916908373ffffffffffffffffffffffffffffffffffffffff16021790555082600160006101000a81548173ffffffffffffffffffffffffffffffffffffffff021916908373ffffffffffffffffffffffffffffffffffffffff16021790555081600260006101000a81548173ffffffffffffffffffffffffffffffffffffffff021916908373ffffffffffffffffffffffffffffffffffffffff16021790555080600360006101000a81548173ffffffffffffffffffffffffffffffffffffffff021916908373ffffffffffffffffffffffffffffffffffffffff1602179055505050505062000220565b600080fd5b600073ffffffffffffffffffffffffffffffffffffffff82169050919050565b6000620001768262000149565b9050919050565b620001888162000169565b81146200019457600080fd5b50565b600081519050620001a8816200017d565b92915050565b60008060008060808587031215620001cb57620001ca62000144565b5b6000620001db8782880162000197565b9450506020620001ee8782880162000197565b9350506040620002018782880162000197565b9250506060620002148782880162000197565b91505092959194509250565b610b9680620002306000396000f3fe608060405234801561001057600080fd5b50600436106100625760003560e01c806311eac855146100675780632904618914610085578063735de9f7146100a15780639cd441da146100bf578063c61d45ca146100db578063e57aab4c146100f9575b600080fd5b61006f610117565b60405161007c919061069f565b60405180910390f35b61009f600480360381019061009a91906106f5565b61013d565b005b6100a96102b6565b6040516100b69190610743565b60405180910390f35b6100d960048036038101906100d4919061075e565b6102dc565b005b6100e36105d6565b6040516100f0919061069f565b60405180910390f35b6101016105fc565b60405161010e91906107bf565b60405180910390f35b600160009054906101000a900473ffffffffffffffffffffffffffffffffffffffff1681565b600160009054906101000a900473ffffffffffffffffffffffffffffffffffffffff1673ffffffffffffffffffffffffffffffffffffffff166323b872dd3330846040518463ffffffff1660e01b815260040161019c9392919061080a565b6020604051808303816000875af11580156101bb573d6000803e3d6000fd5b505050506040513d601f19601f820116820180604052508101906101df9190610879565b61021e576040517f08c379a000000000000000000000000000000000000000000000000000000000815260040161021590610903565b60405180910390fd5b60008054906101000a900473ffffffffffffffffffffffffffffffffffffffff1673ffffffffffffffffffffffffffffffffffffffff166305487369826040518263ffffffff1660e01b81526004016102779190610923565b600060405180830381600087803b15801561029157600080fd5b505af11580156102a5573d6000803e3d6000fd5b505050506102b381826102dc565b50565b600360009054906101000a900473ffffffffffffffffffffffffffffffffffffffff1681565b600160009054906101000a900473ffffffffffffffffffffffffffffffffffffffff1673ffffffffffffffffffffffffffffffffffffffff1663095ea7b3600360009054906101000a900473ffffffffffffffffffffffffffffffffffffffff16846040518363ffffffff1660e01b815260040161035b92919061093e565b6020604051808303816000875af115801561037a573d6000803e3d6000fd5b505050506040513d601f19601f8201168201806040525081019061039e9190610879565b6103dd576040517f08c379a00000000000000000000000000000000000000000000000000000000081526004016103d4906109b3565b60405180910390fd5b600260009054906101000a900473ffffffffffffffffffffffffffffffffffffffff1673ffffffffffffffffffffffffffffffffffffffff1663095ea7b3600360009054906101000a900473ffffffffffffffffffffffffffffffffffffffff16836040518363ffffffff1660e01b815260040161045c92919061093e565b6020604051808303816000875af115801561047b573d6000803e3d6000fd5b505050506040513d601f19601f8201168201806040525081019061049f9190610879565b6104de576040517f08c379a00000000000000000000000000000000000000000000000000000000081526004016104d590610a1f565b60405180910390fd5b600360009054906101000a900473ffffffffffffffffffffffffffffffffffffffff1673ffffffffffffffffffffffffffffffffffffffff1663e8e33700600160009054906101000a900473ffffffffffffffffffffffffffffffffffffffff16600260009054906101000a900473ffffffffffffffffffffffffffffffffffffffff16858560008033426040518963ffffffff1660e01b815260040161058c989796959493929190610a7a565b6060604051808303816000875af11580156105ab573d6000803e3d6000fd5b505050506040513d601f19601f820116820180604052508101906105cf9190610b0d565b5050505050565b600260009054906101000a900473ffffffffffffffffffffffffffffffffffffffff1681565b60008054906101000a900473ffffffffffffffffffffffffffffffffffffffff1681565b600073ffffffffffffffffffffffffffffffffffffffff82169050919050565b6000819050919050565b600061066561066061065b84610620565b610640565b610620565b9050919050565b60006106778261064a565b9050919050565b60006106898261066c565b9050919050565b6106998161067e565b82525050565b60006020820190506106b46000830184610690565b92915050565b600080fd5b6000819050919050565b6106d2816106bf565b81146106dd57600080fd5b50565b6000813590506106ef816106c9565b92915050565b60006020828403121561070b5761070a6106ba565b5b6000610719848285016106e0565b91505092915050565b600061072d8261066c565b9050919050565b61073d81610722565b82525050565b60006020820190506107586000830184610734565b92915050565b60008060408385031215610775576107746106ba565b5b6000610783858286016106e0565b9250506020610794858286016106e0565b9150509250929050565b60006107a98261066c565b9050919050565b6107b98161079e565b82525050565b60006020820190506107d460008301846107b0565b92915050565b60006107e582610620565b9050919050565b6107f5816107da565b82525050565b610804816106bf565b82525050565b600060608201905061081f60008301866107ec565b61082c60208301856107ec565b61083960408301846107fb565b949350505050565b60008115159050919050565b61085681610841565b811461086157600080fd5b50565b6000815190506108738161084d565b92915050565b60006020828403121561088f5761088e6106ba565b5b600061089d84828501610864565b91505092915050565b600082825260208201905092915050565b7f55534443207472616e73666572206661696c6564000000000000000000000000600082015250565b60006108ed6014836108a6565b91506108f8826108b7565b602082019050919050565b6000602082019050818103600083015261091c816108e0565b9050919050565b600060208201905061093860008301846107fb565b92915050565b600060408201905061095360008301856107ec565b61096060208301846107fb565b9392505050565b7f5553444320617070726f76616c206661696c6564000000000000000000000000600082015250565b600061099d6014836108a6565b91506109a882610967565b602082019050919050565b600060208201905081810360008301526109cc81610990565b9050919050565b7f50485820617070726f76616c206661696c656400000000000000000000000000600082015250565b6000610a096013836108a6565b9150610a14826109d3565b602082019050919050565b60006020820190508181036000830152610a38816109fc565b9050919050565b6000819050919050565b6000610a64610a5f610a5a84610a3f565b610640565b6106bf565b9050919050565b610a7481610a49565b82525050565b600061010082019050610a90600083018b6107ec565b610a9d602083018a6107ec565b610aaa60408301896107fb565b610ab760608301886107fb565b610ac46080830187610a6b565b610ad160a0830186610a6b565b610ade60c08301856107ec565b610aeb60e08301846107fb565b9998505050505050505050565b600081519050610b07816106c9565b92915050565b600080600060608486031215610b2657610b256106ba565b5b6000610b3486828701610af8565b9350506020610b4586828701610af8565b9250506040610b5686828701610af8565b915050925092509256fea26469706673582212209929944c73fcdacdbafbb237020a3714e97130dba6e34dded29f96f8357deeac64736f6c63430008140033",
  "linkReferences": {},
  "deployedLinkReferences": {}
}