{
  "_format": "hh-sol-artifact-1",
  "contractName": "IndexCDP",
  "sourceName": "contracts/IndexCDP.sol",
  "abi": [
    {
      "inputs": [
        {
          "internalType": "address",
          "name": "_collateralToken",
          "type": "address"
        },
        {
          "internalType": "address",
          "name": "_phxToken",
          "type": "address"
        },
        {
          "internalType": "address",
          "name": "_uniswapV2Router",
          "type": "address"
        },
        {
          "internalType": "uint256",
          "name": "_minimumCollateralAmount",
          "type": "uint256"
        },
        {
          "internalType": "uint256",
          "name": "_liquidationThreshold",
          "type": "uint256"
        }
      ],
      "stateMutability": "nonpayable",
      "type": "constructor"
    },
    {
      "inputs": [],
      "name": "AccessControlBadConfirmation",
      "type": "error"
    },
    {
      "inputs": [
        {
          "internalType": "address",
          "name": "account",
          "type": "address"
        },
        {
          "internalType": "bytes32",
          "name": "neededRole",
          "type": "bytes32"
        }
      ],
      "name": "AccessControlUnauthorizedAccount",
      "type": "error"
    },
    {
      "inputs": [],
      "name": "ReentrancyGuardReentrantCall",
      "type": "error"
    },
    {
      "anonymous": false,
      "inputs": [
        {
          "indexed": true,
          "internalType": "bytes32",
          "name": "role",
          "type": "bytes32"
        },
        {
          "indexed": true,
          "internalType": "bytes32",
          "name": "previousAdminRole",
          "type": "bytes32"
        },
        {
          "indexed": true,
          "internalType": "bytes32",
          "name": "newAdminRole",
          "type": "bytes32"
        }
      ],
      "name": "RoleAdminChanged",
      "type": "event"
    },
    {
      "anonymous": false,
      "inputs": [
        {
          "indexed": true,
          "internalType": "bytes32",
          "name": "role",
          "type": "bytes32"
        },
        {
          "indexed": true,
          "internalType": "address",
          "name": "account",
          "type": "address"
        },
        {
          "indexed": true,
          "internalType": "address",
          "name": "sender",
          "type": "address"
        }
      ],
      "name": "RoleGranted",
      "type": "event"
    },
    {
      "anonymous": false,
      "inputs": [
        {
          "indexed": true,
          "internalType": "bytes32",
          "name": "role",
          "type": "bytes32"
        },
        {
          "indexed": true,
          "internalType": "address",
          "name": "account",
          "type": "address"
        },
        {
          "indexed": true,
          "internalType": "address",
          "name": "sender",
          "type": "address"
        }
      ],
      "name": "RoleRevoked",
      "type": "event"
    },
    {
      "inputs": [],
      "name": "CDP_MANAGER_ROLE",
      "outputs": [
        {
          "internalType": "bytes32",
          "name": "",
          "type": "bytes32"
        }
      ],
      "stateMutability": "view",
      "type": "function"
    },
    {
      "inputs": [],
      "name": "DEFAULT_ADMIN_ROLE",
      "outputs": [
        {
          "internalType": "bytes32",
          "name": "",
          "type": "bytes32"
        }
      ],
      "stateMutability": "view",
      "type": "function"
    },
    {
      "inputs": [],
      "name": "MINTER_ROLE",
      "outputs": [
        {
          "internalType": "bytes32",
          "name": "",
          "type": "bytes32"
        }
      ],
      "stateMutability": "view",
      "type": "function"
    },
    {
      "inputs": [
        {
          "internalType": "address",
          "name": "",
          "type": "address"
        }
      ],
      "name": "cdps",
      "outputs": [
        {
          "internalType": "uint256",
          "name": "collateralAmount",
          "type": "uint256"
        },
        {
          "internalType": "uint256",
          "name": "debtAmount",
          "type": "uint256"
        },
        {
          "internalType": "uint256",
          "name": "lastInteractionTime",
          "type": "uint256"
        }
      ],
      "stateMutability": "view",
      "type": "function"
    },
    {
      "inputs": [],
      "name": "collateralToken",
      "outputs": [
        {
          "internalType": "contract IERC20",
          "name": "",
          "type": "address"
        }
      ],
      "stateMutability": "view",
      "type": "function"
    },
    {
      "inputs": [
        {
          "internalType": "uint256",
          "name": "collateralAmount",
          "type": "uint256"
        }
      ],
      "name": "createCDP",
      "outputs": [],
      "stateMutability": "nonpayable",
      "type": "function"
    },
    {
      "inputs": [
        {
          "internalType": "bytes32",
          "name": "role",
          "type": "bytes32"
        }
      ],
      "name": "getRoleAdmin",
      "outputs": [
        {
          "internalType": "bytes32",
          "name": "",
          "type": "bytes32"
        }
      ],
      "stateMutability": "view",
      "type": "function"
    },
    {
      "inputs": [
        {
          "internalType": "bytes32",
          "name": "role",
          "type": "bytes32"
        },
        {
          "internalType": "address",
          "name": "account",
          "type": "address"
        }
      ],
      "name": "grantRole",
      "outputs": [],
      "stateMutability": "nonpayable",
      "type": "function"
    },
    {
      "inputs": [
        {
          "internalType": "bytes32",
          "name": "role",
          "type": "bytes32"
        },
        {
          "internalType": "address",
          "name": "account",
          "type": "address"
        }
      ],
      "name": "hasRole",
      "outputs": [
        {
          "internalType": "bool",
          "name": "",
          "type": "bool"
        }
      ],
      "stateMutability": "view",
      "type": "function"
    },
    {
      "inputs": [
        {
          "internalType": "address",
          "name": "cdpOwner",
          "type": "address"
        }
      ],
      "name": "isSubjectToLiquidation",
      "outputs": [
        {
          "internalType": "bool",
          "name": "",
          "type": "bool"
        }
      ],
      "stateMutability": "view",
      "type": "function"
    },
    {
      "inputs": [
        {
          "internalType": "address",
          "name": "cdpOwner",
          "type": "address"
        }
      ],
      "name": "liquidateCDP",
      "outputs": [],
      "stateMutability": "nonpayable",
      "type": "function"
    },
    {
      "inputs": [],
      "name": "liquidationThreshold",
      "outputs": [
        {
          "internalType": "uint256",
          "name": "",
          "type": "uint256"
        }
      ],
      "stateMutability": "view",
      "type": "function"
    },
    {
      "inputs": [],
      "name": "minimumCollateralAmount",
      "outputs": [
        {
          "internalType": "uint256",
          "name": "",
          "type": "uint256"
        }
      ],
      "stateMutability": "view",
      "type": "function"
    },
    {
      "inputs": [],
      "name": "phxToken",
      "outputs": [
        {
          "internalType": "contract IERC20",
          "name": "",
          "type": "address"
        }
      ],
      "stateMutability": "view",
      "type": "function"
    },
    {
      "inputs": [
        {
          "internalType": "bytes32",
          "name": "role",
          "type": "bytes32"
        },
        {
          "internalType": "address",
          "name": "callerConfirmation",
          "type": "address"
        }
      ],
      "name": "renounceRole",
      "outputs": [],
      "stateMutability": "nonpayable",
      "type": "function"
    },
    {
      "inputs": [
        {
          "internalType": "bytes32",
          "name": "role",
          "type": "bytes32"
        },
        {
          "internalType": "address",
          "name": "account",
          "type": "address"
        }
      ],
      "name": "revokeRole",
      "outputs": [],
      "stateMutability": "nonpayable",
      "type": "function"
    },
    {
      "inputs": [
        {
          "internalType": "bytes4",
          "name": "interfaceId",
          "type": "bytes4"
        }
      ],
      "name": "supportsInterface",
      "outputs": [
        {
          "internalType": "bool",
          "name": "",
          "type": "bool"
        }
      ],
      "stateMutability": "view",
      "type": "function"
    },
    {
      "inputs": [
        {
          "internalType": "uint256",
          "name": "phxAmount",
          "type": "uint256"
        }
      ],
      "name": "swapPHXForUSDC",
      "outputs": [],
      "stateMutability": "nonpayable",
      "type": "function"
    },
    {
      "inputs": [],
      "name": "uniswapV2Router",
      "outputs": [
        {
          "internalType": "contract IUniswapV2Router02",
          "name": "",
          "type": "address"
        }
      ],
      "stateMutability": "view",
      "type": "function"
    }
  ],
  "bytecode": "0x60806040523480156200001157600080fd5b5060405162001f3a38038062001f3a833981810160405281019062000037919062000442565b600160008190555084600260006101000a81548173ffffffffffffffffffffffffffffffffffffffff021916908373ffffffffffffffffffffffffffffffffffffffff16021790555083600360006101000a81548173ffffffffffffffffffffffffffffffffffffffff021916908373ffffffffffffffffffffffffffffffffffffffff16021790555082600460006101000a81548173ffffffffffffffffffffffffffffffffffffffff021916908373ffffffffffffffffffffffffffffffffffffffff1602179055508160068190555080600781905550620001427fe71445b5f116bf904b356709382d9b1ea82930a823eafafc102d69c08195f96f336200014d60201b60201c565b505050505062000523565b6200015e826200018760201b60201c565b6200016f81620001a760201b60201c565b620001818383620001cb60201b60201c565b50505050565b600060016000838152602001908152602001600020600101549050919050565b620001c881620001bc620002ce60201b60201c565b620002d660201b60201c565b50565b6000620001df83836200033260201b60201c565b620002c357600180600085815260200190815260200160002060000160008473ffffffffffffffffffffffffffffffffffffffff1673ffffffffffffffffffffffffffffffffffffffff16815260200190815260200160002060006101000a81548160ff0219169083151502179055506200025f620002ce60201b60201c565b73ffffffffffffffffffffffffffffffffffffffff168273ffffffffffffffffffffffffffffffffffffffff16847f2f8788117e7eff1d82e926ec794901d17c78024a50270940304540a733656f0d60405160405180910390a460019050620002c8565b600090505b92915050565b600033905090565b620002e882826200033260201b60201c565b6200032e5780826040517fe2517d3f00000000000000000000000000000000000000000000000000000000815260040162000325929190620004f6565b60405180910390fd5b5050565b60006001600084815260200190815260200160002060000160008373ffffffffffffffffffffffffffffffffffffffff1673ffffffffffffffffffffffffffffffffffffffff16815260200190815260200160002060009054906101000a900460ff16905092915050565b600080fd5b600073ffffffffffffffffffffffffffffffffffffffff82169050919050565b6000620003cf82620003a2565b9050919050565b620003e181620003c2565b8114620003ed57600080fd5b50565b6000815190506200040181620003d6565b92915050565b6000819050919050565b6200041c8162000407565b81146200042857600080fd5b50565b6000815190506200043c8162000411565b92915050565b600080600080600060a086880312156200046157620004606200039d565b5b60006200047188828901620003f0565b95505060206200048488828901620003f0565b94505060406200049788828901620003f0565b9350506060620004aa888289016200042b565b9250506080620004bd888289016200042b565b9150509295509295909350565b620004d581620003c2565b82525050565b6000819050919050565b620004f081620004db565b82525050565b60006040820190506200050d6000830185620004ca565b6200051c6020830184620004e5565b9392505050565b611a0780620005336000396000f3fe608060405234801561001057600080fd5b50600436106101215760003560e01c8063726c59d4116100ad578063b2016bd411610071578063b2016bd41461031c578063c61d45ca1461033a578063d539139314610358578063d547741f14610376578063eee2518a1461039257610121565b8063726c59d4146102645780638096252a14610280578063840c7e241461029c57806391d14854146102ce578063a217fddf146102fe57610121565b80631694505e116100f45780631694505e146101c0578063248a9ca3146101de5780632f2ff15d1461020e57806336568abe1461022a5780634031234c1461024657610121565b806301ffc9a714610126578063035b95f51461015657806305487369146101865780630bd4a922146101a2575b600080fd5b610140600480360381019061013b919061107c565b6103b0565b60405161014d91906110c4565b60405180910390f35b610170600480360381019061016b919061113d565b61042a565b60405161017d91906110c4565b60405180910390f35b6101a0600480360381019061019b91906111a0565b6104b7565b005b6101aa6106fb565b6040516101b791906111e6565b60405180910390f35b6101c861071f565b6040516101d59190611260565b60405180910390f35b6101f860048036038101906101f391906112a7565b610745565b60405161020591906111e6565b60405180910390f35b610228600480360381019061022391906112d4565b610765565b005b610244600480360381019061023f91906112d4565b610787565b005b61024e610802565b60405161025b9190611323565b60405180910390f35b61027e6004803603810190610279919061113d565b610808565b005b61029a600480360381019061029591906111a0565b61088e565b005b6102b660048036038101906102b1919061113d565b610a14565b6040516102c59392919061133e565b60405180910390f35b6102e860048036038101906102e391906112d4565b610a3e565b6040516102f591906110c4565b60405180910390f35b610306610aa9565b60405161031391906111e6565b60405180910390f35b610324610ab0565b6040516103319190611396565b60405180910390f35b610342610ad6565b60405161034f9190611396565b60405180910390f35b610360610afc565b60405161036d91906111e6565b60405180910390f35b610390600480360381019061038b91906112d4565b610b20565b005b61039a610b42565b6040516103a79190611323565b60405180910390f35b60007f7965db0b000000000000000000000000000000000000000000000000000000007bffffffffffffffffffffffffffffffffffffffffffffffffffffffff1916827bffffffffffffffffffffffffffffffffffffffffffffffffffffffff19161480610423575061042282610b48565b5b9050919050565b600080600560008473ffffffffffffffffffffffffffffffffffffffff1673ffffffffffffffffffffffffffffffffffffffff16815260200190815260200160002060405180606001604052908160008201548152602001600182015481526020016002820154815250509050806020015160075482600001516104ae91906113e0565b10915050919050565b6104bf610bb2565b7fe71445b5f116bf904b356709382d9b1ea82930a823eafafc102d69c08195f96f6104e981610bf8565b60065482101561052e576040517f08c379a00000000000000000000000000000000000000000000000000000000081526004016105259061147f565b60405180910390fd5b600260009054906101000a900473ffffffffffffffffffffffffffffffffffffffff1673ffffffffffffffffffffffffffffffffffffffff166323b872dd3330856040518463ffffffff1660e01b815260040161058d939291906114ae565b6020604051808303816000875af11580156105ac573d6000803e3d6000fd5b505050506040513d601f19601f820116820180604052508101906105d09190611511565b5060006105dc83610c0c565b9050604051806060016040528084815260200182815260200142815250600560003373ffffffffffffffffffffffffffffffffffffffff1673ffffffffffffffffffffffffffffffffffffffff1681526020019081526020016000206000820151816000015560208201518160010155604082015181600201559050506000600360009054906101000a900473ffffffffffffffffffffffffffffffffffffffff1690508073ffffffffffffffffffffffffffffffffffffffff166340c10f1933866040518363ffffffff1660e01b81526004016106bb92919061153e565b600060405180830381600087803b1580156106d557600080fd5b505af11580156106e9573d6000803e3d6000fd5b505050505050506106f8610c22565b50565b7fe71445b5f116bf904b356709382d9b1ea82930a823eafafc102d69c08195f96f81565b600460009054906101000a900473ffffffffffffffffffffffffffffffffffffffff1681565b600060016000838152602001908152602001600020600101549050919050565b61076e82610745565b61077781610bf8565b6107818383610c2c565b50505050565b61078f610d1d565b73ffffffffffffffffffffffffffffffffffffffff168173ffffffffffffffffffffffffffffffffffffffff16146107f3576040517f6697b23200000000000000000000000000000000000000000000000000000000815260040160405180910390fd5b6107fd8282610d25565b505050565b60075481565b610810610bb2565b7fe71445b5f116bf904b356709382d9b1ea82930a823eafafc102d69c08195f96f61083a81610bf8565b6108438261042a565b610882576040517f08c379a0000000000000000000000000000000000000000000000000000000008152600401610879906115d9565b60405180910390fd5b5061088b610c22565b50565b600360009054906101000a900473ffffffffffffffffffffffffffffffffffffffff1673ffffffffffffffffffffffffffffffffffffffff1663095ea7b3600460009054906101000a900473ffffffffffffffffffffffffffffffffffffffff16836040518363ffffffff1660e01b815260040161090d92919061153e565b6020604051808303816000875af115801561092c573d6000803e3d6000fd5b505050506040513d601f19601f820116820180604052508101906109509190611511565b50600460009054906101000a900473ffffffffffffffffffffffffffffffffffffffff1673ffffffffffffffffffffffffffffffffffffffff166338ed173982600061099a610e18565b33600f426109a891906115f9565b6040518663ffffffff1660e01b81526004016109c8959493929190611726565b6000604051808303816000875af11580156109e7573d6000803e3d6000fd5b505050506040513d6000823e3d601f19601f82011682018060405250810190610a1091906118ee565b5050565b60056020528060005260406000206000915090508060000154908060010154908060020154905083565b60006001600084815260200190815260200160002060000160008373ffffffffffffffffffffffffffffffffffffffff1673ffffffffffffffffffffffffffffffffffffffff16815260200190815260200160002060009054906101000a900460ff16905092915050565b6000801b81565b600260009054906101000a900473ffffffffffffffffffffffffffffffffffffffff1681565b600360009054906101000a900473ffffffffffffffffffffffffffffffffffffffff1681565b7f9f2df0fed2c77648de5860a4cc508cd0818c85b8b8a1ab4ceeef8d981c8956a681565b610b2982610745565b610b3281610bf8565b610b3c8383610d25565b50505050565b60065481565b60007f01ffc9a7000000000000000000000000000000000000000000000000000000007bffffffffffffffffffffffffffffffffffffffffffffffffffffffff1916827bffffffffffffffffffffffffffffffffffffffffffffffffffffffff1916149050919050565b600260005403610bee576040517f3ee5aeb500000000000000000000000000000000000000000000000000000000815260040160405180910390fd5b6002600081905550565b610c0981610c04610d1d565b610fbf565b50565b6000600282610c1b91906113e0565b9050919050565b6001600081905550565b6000610c388383610a3e565b610d1257600180600085815260200190815260200160002060000160008473ffffffffffffffffffffffffffffffffffffffff1673ffffffffffffffffffffffffffffffffffffffff16815260200190815260200160002060006101000a81548160ff021916908315150217905550610caf610d1d565b73ffffffffffffffffffffffffffffffffffffffff168273ffffffffffffffffffffffffffffffffffffffff16847f2f8788117e7eff1d82e926ec794901d17c78024a50270940304540a733656f0d60405160405180910390a460019050610d17565b600090505b92915050565b600033905090565b6000610d318383610a3e565b15610e0d5760006001600085815260200190815260200160002060000160008473ffffffffffffffffffffffffffffffffffffffff1673ffffffffffffffffffffffffffffffffffffffff16815260200190815260200160002060006101000a81548160ff021916908315150217905550610daa610d1d565b73ffffffffffffffffffffffffffffffffffffffff168273ffffffffffffffffffffffffffffffffffffffff16847ff6391f5c32d9c69d2a47ea670b442974b53935d1edc7fd64eb21e047a839171b60405160405180910390a460019050610e12565b600090505b92915050565b60606000600267ffffffffffffffff811115610e3757610e36611796565b5b604051908082528060200260200182016040528015610e655781602001602082028036833780820191505090505b509050600360009054906101000a900473ffffffffffffffffffffffffffffffffffffffff1681600081518110610e9f57610e9e611937565b5b602002602001019073ffffffffffffffffffffffffffffffffffffffff16908173ffffffffffffffffffffffffffffffffffffffff1681525050600460009054906101000a900473ffffffffffffffffffffffffffffffffffffffff1673ffffffffffffffffffffffffffffffffffffffff1663ad5c46486040518163ffffffff1660e01b8152600401602060405180830381865afa158015610f46573d6000803e3d6000fd5b505050506040513d601f19601f82011682018060405250810190610f6a919061197b565b81600181518110610f7e57610f7d611937565b5b602002602001019073ffffffffffffffffffffffffffffffffffffffff16908173ffffffffffffffffffffffffffffffffffffffff16815250508091505090565b610fc98282610a3e565b61100c5780826040517fe2517d3f0000000000000000000000000000000000000000000000000000000081526004016110039291906119a8565b60405180910390fd5b5050565b6000604051905090565b600080fd5b600080fd5b60007fffffffff0000000000000000000000000000000000000000000000000000000082169050919050565b61105981611024565b811461106457600080fd5b50565b60008135905061107681611050565b92915050565b6000602082840312156110925761109161101a565b5b60006110a084828501611067565b91505092915050565b60008115159050919050565b6110be816110a9565b82525050565b60006020820190506110d960008301846110b5565b92915050565b600073ffffffffffffffffffffffffffffffffffffffff82169050919050565b600061110a826110df565b9050919050565b61111a816110ff565b811461112557600080fd5b50565b60008135905061113781611111565b92915050565b6000602082840312156111535761115261101a565b5b600061116184828501611128565b91505092915050565b6000819050919050565b61117d8161116a565b811461118857600080fd5b50565b60008135905061119a81611174565b92915050565b6000602082840312156111b6576111b561101a565b5b60006111c48482850161118b565b91505092915050565b6000819050919050565b6111e0816111cd565b82525050565b60006020820190506111fb60008301846111d7565b92915050565b6000819050919050565b600061122661122161121c846110df565b611201565b6110df565b9050919050565b60006112388261120b565b9050919050565b600061124a8261122d565b9050919050565b61125a8161123f565b82525050565b60006020820190506112756000830184611251565b92915050565b611284816111cd565b811461128f57600080fd5b50565b6000813590506112a18161127b565b92915050565b6000602082840312156112bd576112bc61101a565b5b60006112cb84828501611292565b91505092915050565b600080604083850312156112eb576112ea61101a565b5b60006112f985828601611292565b925050602061130a85828601611128565b9150509250929050565b61131d8161116a565b82525050565b60006020820190506113386000830184611314565b92915050565b60006060820190506113536000830186611314565b6113606020830185611314565b61136d6040830184611314565b949350505050565b60006113808261122d565b9050919050565b61139081611375565b82525050565b60006020820190506113ab6000830184611387565b92915050565b7f4e487b7100000000000000000000000000000000000000000000000000000000600052601160045260246000fd5b60006113eb8261116a565b91506113f68361116a565b92508282026114048161116a565b9150828204841483151761141b5761141a6113b1565b5b5092915050565b600082825260208201905092915050565b7f436f6c6c61746572616c20697320746f6f206c6f770000000000000000000000600082015250565b6000611469601583611422565b915061147482611433565b602082019050919050565b600060208201905081810360008301526114988161145c565b9050919050565b6114a8816110ff565b82525050565b60006060820190506114c3600083018661149f565b6114d0602083018561149f565b6114dd6040830184611314565b949350505050565b6114ee816110a9565b81146114f957600080fd5b50565b60008151905061150b816114e5565b92915050565b6000602082840312156115275761152661101a565b5b6000611535848285016114fc565b91505092915050565b6000604082019050611553600083018561149f565b6115606020830184611314565b9392505050565b7f434450206973206e6f74207375626a65637420746f206c69717569646174696f60008201527f6e00000000000000000000000000000000000000000000000000000000000000602082015250565b60006115c3602183611422565b91506115ce82611567565b604082019050919050565b600060208201905081810360008301526115f2816115b6565b9050919050565b60006116048261116a565b915061160f8361116a565b9250828201905080821115611627576116266113b1565b5b92915050565b6000819050919050565b600061165261164d6116488461162d565b611201565b61116a565b9050919050565b61166281611637565b82525050565b600081519050919050565b600082825260208201905092915050565b6000819050602082019050919050565b61169d816110ff565b82525050565b60006116af8383611694565b60208301905092915050565b6000602082019050919050565b60006116d382611668565b6116dd8185611673565b93506116e883611684565b8060005b8381101561171957815161170088826116a3565b975061170b836116bb565b9250506001810190506116ec565b5085935050505092915050565b600060a08201905061173b6000830188611314565b6117486020830187611659565b818103604083015261175a81866116c8565b9050611769606083018561149f565b6117766080830184611314565b9695505050505050565b600080fd5b6000601f19601f8301169050919050565b7f4e487b7100000000000000000000000000000000000000000000000000000000600052604160045260246000fd5b6117ce82611785565b810181811067ffffffffffffffff821117156117ed576117ec611796565b5b80604052505050565b6000611800611010565b905061180c82826117c5565b919050565b600067ffffffffffffffff82111561182c5761182b611796565b5b602082029050602081019050919050565b600080fd5b60008151905061185181611174565b92915050565b600061186a61186584611811565b6117f6565b9050808382526020820190506020840283018581111561188d5761188c61183d565b5b835b818110156118b657806118a28882611842565b84526020840193505060208101905061188f565b5050509392505050565b600082601f8301126118d5576118d4611780565b5b81516118e5848260208601611857565b91505092915050565b6000602082840312156119045761190361101a565b5b600082015167ffffffffffffffff8111156119225761192161101f565b5b61192e848285016118c0565b91505092915050565b7f4e487b7100000000000000000000000000000000000000000000000000000000600052603260045260246000fd5b60008151905061197581611111565b92915050565b6000602082840312156119915761199061101a565b5b600061199f84828501611966565b91505092915050565b60006040820190506119bd600083018561149f565b6119ca60208301846111d7565b939250505056fea2646970667358221220ca4a3134c3c81100d280f9a183242067d92f7777d186a64957579d8bd8dda27a64736f6c63430008140033",
  "linkReferences": {},
  "deployedLinkReferences": {}
}