{
  "_format": "hh-sol-artifact-1",
  "contractName": "SP500CDP",
  "sourceName": "contracts/SP500CDP.sol",
  "abi": [
    {
      "inputs": [
        {
          "internalType": "address",
          "name": "_collateralToken",
          "type": "address"
        },
        {
          "internalType": "address",
          "name": "_priceFeedAddress",
          "type": "address"
        },
        {
          "internalType": "address",
          "name": "_phxToken",
          "type": "address"
        },
        {
          "internalType": "address",
          "name": "_uniswapV2Router",
          "type": "address"
        },
        {
          "internalType": "uint256",
          "name": "_minimumCollateralAmount",
          "type": "uint256"
        },
        {
          "internalType": "uint256",
          "name": "_SP500CollateralizationRatio",
          "type": "uint256"
        },
        {
          "internalType": "uint256",
          "name": "_SP500LiquidationThreshold",
          "type": "uint256"
        },
        {
          "internalType": "uint256",
          "name": "_SP500StabilityFee",
          "type": "uint256"
        }
      ],
      "stateMutability": "nonpayable",
      "type": "constructor"
    },
    {
      "inputs": [],
      "name": "AccessControlBadConfirmation",
      "type": "error"
    },
    {
      "inputs": [
        {
          "internalType": "address",
          "name": "account",
          "type": "address"
        },
        {
          "internalType": "bytes32",
          "name": "neededRole",
          "type": "bytes32"
        }
      ],
      "name": "AccessControlUnauthorizedAccount",
      "type": "error"
    },
    {
      "inputs": [],
      "name": "ReentrancyGuardReentrantCall",
      "type": "error"
    },
    {
      "anonymous": false,
      "inputs": [
        {
          "indexed": true,
          "internalType": "bytes32",
          "name": "role",
          "type": "bytes32"
        },
        {
          "indexed": true,
          "internalType": "bytes32",
          "name": "previousAdminRole",
          "type": "bytes32"
        },
        {
          "indexed": true,
          "internalType": "bytes32",
          "name": "newAdminRole",
          "type": "bytes32"
        }
      ],
      "name": "RoleAdminChanged",
      "type": "event"
    },
    {
      "anonymous": false,
      "inputs": [
        {
          "indexed": true,
          "internalType": "bytes32",
          "name": "role",
          "type": "bytes32"
        },
        {
          "indexed": true,
          "internalType": "address",
          "name": "account",
          "type": "address"
        },
        {
          "indexed": true,
          "internalType": "address",
          "name": "sender",
          "type": "address"
        }
      ],
      "name": "RoleGranted",
      "type": "event"
    },
    {
      "anonymous": false,
      "inputs": [
        {
          "indexed": true,
          "internalType": "bytes32",
          "name": "role",
          "type": "bytes32"
        },
        {
          "indexed": true,
          "internalType": "address",
          "name": "account",
          "type": "address"
        },
        {
          "indexed": true,
          "internalType": "address",
          "name": "sender",
          "type": "address"
        }
      ],
      "name": "RoleRevoked",
      "type": "event"
    },
    {
      "anonymous": false,
      "inputs": [
        {
          "indexed": false,
          "internalType": "uint256",
          "name": "collateralizationRatio",
          "type": "uint256"
        },
        {
          "indexed": false,
          "internalType": "uint256",
          "name": "liquidationThreshold",
          "type": "uint256"
        },
        {
          "indexed": false,
          "internalType": "uint256",
          "name": "stabilityFee",
          "type": "uint256"
        }
      ],
      "name": "SP500ParametersUpdated",
      "type": "event"
    },
    {
      "inputs": [],
      "name": "CDP_MANAGER_ROLE",
      "outputs": [
        {
          "internalType": "bytes32",
          "name": "",
          "type": "bytes32"
        }
      ],
      "stateMutability": "view",
      "type": "function"
    },
    {
      "inputs": [],
      "name": "DEFAULT_ADMIN_ROLE",
      "outputs": [
        {
          "internalType": "bytes32",
          "name": "",
          "type": "bytes32"
        }
      ],
      "stateMutability": "view",
      "type": "function"
    },
    {
      "inputs": [],
      "name": "MINTER_ROLE",
      "outputs": [
        {
          "internalType": "bytes32",
          "name": "",
          "type": "bytes32"
        }
      ],
      "stateMutability": "view",
      "type": "function"
    },
    {
      "inputs": [],
      "name": "SP500CollateralizationRatio",
      "outputs": [
        {
          "internalType": "uint256",
          "name": "",
          "type": "uint256"
        }
      ],
      "stateMutability": "view",
      "type": "function"
    },
    {
      "inputs": [],
      "name": "SP500LiquidationThreshold",
      "outputs": [
        {
          "internalType": "uint256",
          "name": "",
          "type": "uint256"
        }
      ],
      "stateMutability": "view",
      "type": "function"
    },
    {
      "inputs": [],
      "name": "SP500StabilityFee",
      "outputs": [
        {
          "internalType": "uint256",
          "name": "",
          "type": "uint256"
        }
      ],
      "stateMutability": "view",
      "type": "function"
    },
    {
      "inputs": [
        {
          "internalType": "address",
          "name": "",
          "type": "address"
        }
      ],
      "name": "cdps",
      "outputs": [
        {
          "internalType": "uint256",
          "name": "collateralAmount",
          "type": "uint256"
        },
        {
          "internalType": "uint256",
          "name": "debtAmount",
          "type": "uint256"
        },
        {
          "internalType": "uint256",
          "name": "lastInteractionTime",
          "type": "uint256"
        }
      ],
      "stateMutability": "view",
      "type": "function"
    },
    {
      "inputs": [],
      "name": "collateralToken",
      "outputs": [
        {
          "internalType": "contract IERC20",
          "name": "",
          "type": "address"
        }
      ],
      "stateMutability": "view",
      "type": "function"
    },
    {
      "inputs": [
        {
          "internalType": "uint256",
          "name": "collateralAmount",
          "type": "uint256"
        }
      ],
      "name": "createCDP",
      "outputs": [],
      "stateMutability": "nonpayable",
      "type": "function"
    },
    {
      "inputs": [],
      "name": "fetchLatestSP500Price",
      "outputs": [
        {
          "internalType": "uint256",
          "name": "",
          "type": "uint256"
        }
      ],
      "stateMutability": "view",
      "type": "function"
    },
    {
      "inputs": [
        {
          "internalType": "bytes32",
          "name": "role",
          "type": "bytes32"
        }
      ],
      "name": "getRoleAdmin",
      "outputs": [
        {
          "internalType": "bytes32",
          "name": "",
          "type": "bytes32"
        }
      ],
      "stateMutability": "view",
      "type": "function"
    },
    {
      "inputs": [
        {
          "internalType": "bytes32",
          "name": "role",
          "type": "bytes32"
        },
        {
          "internalType": "address",
          "name": "account",
          "type": "address"
        }
      ],
      "name": "grantRole",
      "outputs": [],
      "stateMutability": "nonpayable",
      "type": "function"
    },
    {
      "inputs": [
        {
          "internalType": "bytes32",
          "name": "role",
          "type": "bytes32"
        },
        {
          "internalType": "address",
          "name": "account",
          "type": "address"
        }
      ],
      "name": "hasRole",
      "outputs": [
        {
          "internalType": "bool",
          "name": "",
          "type": "bool"
        }
      ],
      "stateMutability": "view",
      "type": "function"
    },
    {
      "inputs": [
        {
          "internalType": "address",
          "name": "cdpOwner",
          "type": "address"
        }
      ],
      "name": "isSubjectToLiquidation",
      "outputs": [
        {
          "internalType": "bool",
          "name": "",
          "type": "bool"
        }
      ],
      "stateMutability": "view",
      "type": "function"
    },
    {
      "inputs": [
        {
          "internalType": "address",
          "name": "cdpOwner",
          "type": "address"
        }
      ],
      "name": "liquidateCDP",
      "outputs": [],
      "stateMutability": "nonpayable",
      "type": "function"
    },
    {
      "inputs": [],
      "name": "liquidationThreshold",
      "outputs": [
        {
          "internalType": "uint256",
          "name": "",
          "type": "uint256"
        }
      ],
      "stateMutability": "view",
      "type": "function"
    },
    {
      "inputs": [],
      "name": "minimumCollateralAmount",
      "outputs": [
        {
          "internalType": "uint256",
          "name": "",
          "type": "uint256"
        }
      ],
      "stateMutability": "view",
      "type": "function"
    },
    {
      "inputs": [],
      "name": "phxToken",
      "outputs": [
        {
          "internalType": "contract IERC20",
          "name": "",
          "type": "address"
        }
      ],
      "stateMutability": "view",
      "type": "function"
    },
    {
      "inputs": [
        {
          "internalType": "bytes32",
          "name": "role",
          "type": "bytes32"
        },
        {
          "internalType": "address",
          "name": "callerConfirmation",
          "type": "address"
        }
      ],
      "name": "renounceRole",
      "outputs": [],
      "stateMutability": "nonpayable",
      "type": "function"
    },
    {
      "inputs": [
        {
          "internalType": "bytes32",
          "name": "role",
          "type": "bytes32"
        },
        {
          "internalType": "address",
          "name": "account",
          "type": "address"
        }
      ],
      "name": "revokeRole",
      "outputs": [],
      "stateMutability": "nonpayable",
      "type": "function"
    },
    {
      "inputs": [
        {
          "internalType": "uint256",
          "name": "newCollateralizationRatio",
          "type": "uint256"
        },
        {
          "internalType": "uint256",
          "name": "newLiquidationThreshold",
          "type": "uint256"
        },
        {
          "internalType": "uint256",
          "name": "newStabilityFee",
          "type": "uint256"
        }
      ],
      "name": "setSP500Parameters",
      "outputs": [],
      "stateMutability": "nonpayable",
      "type": "function"
    },
    {
      "inputs": [
        {
          "internalType": "bytes4",
          "name": "interfaceId",
          "type": "bytes4"
        }
      ],
      "name": "supportsInterface",
      "outputs": [
        {
          "internalType": "bool",
          "name": "",
          "type": "bool"
        }
      ],
      "stateMutability": "view",
      "type": "function"
    },
    {
      "inputs": [
        {
          "internalType": "uint256",
          "name": "phxAmount",
          "type": "uint256"
        }
      ],
      "name": "swapPHXForUSDC",
      "outputs": [],
      "stateMutability": "nonpayable",
      "type": "function"
    },
    {
      "inputs": [],
      "name": "uniswapV2Router",
      "outputs": [
        {
          "internalType": "contract IUniswapV2Router02",
          "name": "",
          "type": "address"
        }
      ],
      "stateMutability": "view",
      "type": "function"
    }
  ],
  "bytecode": "0x60806040523480156200001157600080fd5b506040516200212f3803806200212f8339818101604052810190620000379190620004a5565b8786868685600160008190555084600260006101000a81548173ffffffffffffffffffffffffffffffffffffffff021916908373ffffffffffffffffffffffffffffffffffffffff16021790555083600360006101000a81548173ffffffffffffffffffffffffffffffffffffffff021916908373ffffffffffffffffffffffffffffffffffffffff16021790555082600460006101000a81548173ffffffffffffffffffffffffffffffffffffffff021916908373ffffffffffffffffffffffffffffffffffffffff1602179055508160068190555080600781905550620001477fe71445b5f116bf904b356709382d9b1ea82930a823eafafc102d69c08195f96f33620001b060201b60201c565b505050505086600b60006101000a81548173ffffffffffffffffffffffffffffffffffffffff021916908373ffffffffffffffffffffffffffffffffffffffff160217905550826008819055508160098190555080600a819055505050505050505050620005c7565b620001c182620001ea60201b60201c565b620001d2816200020a60201b60201c565b620001e483836200022e60201b60201c565b50505050565b600060016000838152602001908152602001600020600101549050919050565b6200022b816200021f6200033160201b60201c565b6200033960201b60201c565b50565b60006200024283836200039560201b60201c565b6200032657600180600085815260200190815260200160002060000160008473ffffffffffffffffffffffffffffffffffffffff1673ffffffffffffffffffffffffffffffffffffffff16815260200190815260200160002060006101000a81548160ff021916908315150217905550620002c26200033160201b60201c565b73ffffffffffffffffffffffffffffffffffffffff168273ffffffffffffffffffffffffffffffffffffffff16847f2f8788117e7eff1d82e926ec794901d17c78024a50270940304540a733656f0d60405160405180910390a4600190506200032b565b600090505b92915050565b600033905090565b6200034b82826200039560201b60201c565b620003915780826040517fe2517d3f000000000000000000000000000000000000000000000000000000008152600401620003889291906200059a565b60405180910390fd5b5050565b60006001600084815260200190815260200160002060000160008373ffffffffffffffffffffffffffffffffffffffff1673ffffffffffffffffffffffffffffffffffffffff16815260200190815260200160002060009054906101000a900460ff16905092915050565b600080fd5b600073ffffffffffffffffffffffffffffffffffffffff82169050919050565b6000620004328262000405565b9050919050565b620004448162000425565b81146200045057600080fd5b50565b600081519050620004648162000439565b92915050565b6000819050919050565b6200047f816200046a565b81146200048b57600080fd5b50565b6000815190506200049f8162000474565b92915050565b600080600080600080600080610100898b031215620004c957620004c862000400565b5b6000620004d98b828c0162000453565b9850506020620004ec8b828c0162000453565b9750506040620004ff8b828c0162000453565b9650506060620005128b828c0162000453565b9550506080620005258b828c016200048e565b94505060a0620005388b828c016200048e565b93505060c06200054b8b828c016200048e565b92505060e06200055e8b828c016200048e565b9150509295985092959890939650565b620005798162000425565b82525050565b6000819050919050565b62000594816200057f565b82525050565b6000604082019050620005b160008301856200056e565b620005c0602083018462000589565b9392505050565b611b5880620005d76000396000f3fe608060405234801561001057600080fd5b50600436106101585760003560e01c8063726c59d4116100c3578063b2016bd41161007c578063b2016bd4146103c9578063c61d45ca146103e7578063d539139314610405578063d547741f14610423578063ed19e4151461043f578063eee2518a1461045d57610158565b8063726c59d4146102f35780638096252a1461030f578063840c7e241461032b57806391d148541461035d578063a217fddf1461038d578063ab70ace3146103ab57610158565b806329325fe91161011557806329325fe9146102455780632f2ff15d1461026357806331f894e71461027f57806336568abe1461029d5780634031234c146102b957806369f4a715146102d757610158565b806301ffc9a71461015d578063035b95f51461018d57806305487369146101bd5780630bd4a922146101d95780631694505e146101f7578063248a9ca314610215575b600080fd5b61017760048036038101906101729190611124565b61047b565b604051610184919061116c565b60405180910390f35b6101a760048036038101906101a291906111e5565b6104f5565b6040516101b4919061116c565b60405180910390f35b6101d760048036038101906101d29190611248565b610582565b005b6101e1610653565b6040516101ee919061128e565b60405180910390f35b6101ff610677565b60405161020c9190611308565b60405180910390f35b61022f600480360381019061022a919061134f565b61069d565b60405161023c919061128e565b60405180910390f35b61024d6106bd565b60405161025a919061138b565b60405180910390f35b61027d600480360381019061027891906113a6565b61076e565b005b610287610790565b604051610294919061138b565b60405180910390f35b6102b760048036038101906102b291906113a6565b610796565b005b6102c1610811565b6040516102ce919061138b565b60405180910390f35b6102f160048036038101906102ec91906113e6565b610817565b005b61030d600480360381019061030891906111e5565b610897565b005b61032960048036038101906103249190611248565b61091d565b005b610345600480360381019061034091906111e5565b610aa3565b60405161035493929190611439565b60405180910390f35b610377600480360381019061037291906113a6565b610acd565b604051610384919061116c565b60405180910390f35b610395610b38565b6040516103a2919061128e565b60405180910390f35b6103b3610b3f565b6040516103c0919061138b565b60405180910390f35b6103d1610b45565b6040516103de9190611491565b60405180910390f35b6103ef610b6b565b6040516103fc9190611491565b60405180910390f35b61040d610b91565b60405161041a919061128e565b60405180910390f35b61043d600480360381019061043891906113a6565b610bb5565b005b610447610bd7565b604051610454919061138b565b60405180910390f35b610465610bdd565b604051610472919061138b565b60405180910390f35b60007f7965db0b000000000000000000000000000000000000000000000000000000007bffffffffffffffffffffffffffffffffffffffffffffffffffffffff1916827bffffffffffffffffffffffffffffffffffffffffffffffffffffffff191614806104ee57506104ed82610be3565b5b9050919050565b600080600560008473ffffffffffffffffffffffffffffffffffffffff1673ffffffffffffffffffffffffffffffffffffffff168152602001908152602001600020604051806060016040529081600082015481526020016001820154815260200160028201548152505090508060200151600754826000015161057991906114db565b10915050919050565b6006548110156105c7576040517f08c379a00000000000000000000000000000000000000000000000000000000081526004016105be9061157a565b60405180910390fd5b60006105d282610c4d565b9050604051806060016040528083815260200182815260200142815250600560003373ffffffffffffffffffffffffffffffffffffffff1673ffffffffffffffffffffffffffffffffffffffff1681526020019081526020016000206000820151816000015560208201518160010155604082015181600201559050505050565b7fe71445b5f116bf904b356709382d9b1ea82930a823eafafc102d69c08195f96f81565b600460009054906101000a900473ffffffffffffffffffffffffffffffffffffffff1681565b600060016000838152602001908152602001600020600101549050919050565b600080600b60009054906101000a900473ffffffffffffffffffffffffffffffffffffffff1673ffffffffffffffffffffffffffffffffffffffff16638e15f4736040518163ffffffff1660e01b8152600401602060405180830381865afa15801561072d573d6000803e3d6000fd5b505050506040513d601f19601f8201168201806040525081019061075191906115af565b90506000620f424082610764919061160b565b9050809250505090565b6107778261069d565b61078081610c70565b61078a8383610c84565b50505050565b600a5481565b61079e610d75565b73ffffffffffffffffffffffffffffffffffffffff168173ffffffffffffffffffffffffffffffffffffffff1614610802576040517f6697b23200000000000000000000000000000000000000000000000000000000815260040160405180910390fd5b61080c8282610d7d565b505050565b60075481565b7f9f2df0fed2c77648de5860a4cc508cd0818c85b8b8a1ab4ceeef8d981c8956a661084181610c70565b836008819055508260098190555081600a819055507fe9ad3c44048b467a1adc4e76b6b542903424166ab9c67860782eebcf95463a2d84848460405161088993929190611439565b60405180910390a150505050565b61089f610e70565b7fe71445b5f116bf904b356709382d9b1ea82930a823eafafc102d69c08195f96f6108c981610c70565b6108d2826104f5565b610911576040517f08c379a0000000000000000000000000000000000000000000000000000000008152600401610908906116ae565b60405180910390fd5b5061091a610eb6565b50565b600360009054906101000a900473ffffffffffffffffffffffffffffffffffffffff1673ffffffffffffffffffffffffffffffffffffffff1663095ea7b3600460009054906101000a900473ffffffffffffffffffffffffffffffffffffffff16836040518363ffffffff1660e01b815260040161099c9291906116dd565b6020604051808303816000875af11580156109bb573d6000803e3d6000fd5b505050506040513d601f19601f820116820180604052508101906109df9190611732565b50600460009054906101000a900473ffffffffffffffffffffffffffffffffffffffff1673ffffffffffffffffffffffffffffffffffffffff166338ed1739826000610a29610ec0565b33600f42610a37919061175f565b6040518663ffffffff1660e01b8152600401610a5795949392919061188c565b6000604051808303816000875af1158015610a76573d6000803e3d6000fd5b505050506040513d6000823e3d601f19601f82011682018060405250810190610a9f9190611a3f565b5050565b60056020528060005260406000206000915090508060000154908060010154908060020154905083565b60006001600084815260200190815260200160002060000160008373ffffffffffffffffffffffffffffffffffffffff1673ffffffffffffffffffffffffffffffffffffffff16815260200190815260200160002060009054906101000a900460ff16905092915050565b6000801b81565b60095481565b600260009054906101000a900473ffffffffffffffffffffffffffffffffffffffff1681565b600360009054906101000a900473ffffffffffffffffffffffffffffffffffffffff1681565b7f9f2df0fed2c77648de5860a4cc508cd0818c85b8b8a1ab4ceeef8d981c8956a681565b610bbe8261069d565b610bc781610c70565b610bd18383610d7d565b50505050565b60085481565b60065481565b60007f01ffc9a7000000000000000000000000000000000000000000000000000000007bffffffffffffffffffffffffffffffffffffffffffffffffffffffff1916827bffffffffffffffffffffffffffffffffffffffffffffffffffffffff1916149050919050565b6000606460085483610c5f91906114db565b610c69919061160b565b9050919050565b610c8181610c7c610d75565b611067565b50565b6000610c908383610acd565b610d6a57600180600085815260200190815260200160002060000160008473ffffffffffffffffffffffffffffffffffffffff1673ffffffffffffffffffffffffffffffffffffffff16815260200190815260200160002060006101000a81548160ff021916908315150217905550610d07610d75565b73ffffffffffffffffffffffffffffffffffffffff168273ffffffffffffffffffffffffffffffffffffffff16847f2f8788117e7eff1d82e926ec794901d17c78024a50270940304540a733656f0d60405160405180910390a460019050610d6f565b600090505b92915050565b600033905090565b6000610d898383610acd565b15610e655760006001600085815260200190815260200160002060000160008473ffffffffffffffffffffffffffffffffffffffff1673ffffffffffffffffffffffffffffffffffffffff16815260200190815260200160002060006101000a81548160ff021916908315150217905550610e02610d75565b73ffffffffffffffffffffffffffffffffffffffff168273ffffffffffffffffffffffffffffffffffffffff16847ff6391f5c32d9c69d2a47ea670b442974b53935d1edc7fd64eb21e047a839171b60405160405180910390a460019050610e6a565b600090505b92915050565b600260005403610eac576040517f3ee5aeb500000000000000000000000000000000000000000000000000000000815260040160405180910390fd5b6002600081905550565b6001600081905550565b60606000600267ffffffffffffffff811115610edf57610ede6118fc565b5b604051908082528060200260200182016040528015610f0d5781602001602082028036833780820191505090505b509050600360009054906101000a900473ffffffffffffffffffffffffffffffffffffffff1681600081518110610f4757610f46611a88565b5b602002602001019073ffffffffffffffffffffffffffffffffffffffff16908173ffffffffffffffffffffffffffffffffffffffff1681525050600460009054906101000a900473ffffffffffffffffffffffffffffffffffffffff1673ffffffffffffffffffffffffffffffffffffffff1663ad5c46486040518163ffffffff1660e01b8152600401602060405180830381865afa158015610fee573d6000803e3d6000fd5b505050506040513d601f19601f820116820180604052508101906110129190611acc565b8160018151811061102657611025611a88565b5b602002602001019073ffffffffffffffffffffffffffffffffffffffff16908173ffffffffffffffffffffffffffffffffffffffff16815250508091505090565b6110718282610acd565b6110b45780826040517fe2517d3f0000000000000000000000000000000000000000000000000000000081526004016110ab929190611af9565b60405180910390fd5b5050565b6000604051905090565b600080fd5b600080fd5b60007fffffffff0000000000000000000000000000000000000000000000000000000082169050919050565b611101816110cc565b811461110c57600080fd5b50565b60008135905061111e816110f8565b92915050565b60006020828403121561113a576111396110c2565b5b60006111488482850161110f565b91505092915050565b60008115159050919050565b61116681611151565b82525050565b6000602082019050611181600083018461115d565b92915050565b600073ffffffffffffffffffffffffffffffffffffffff82169050919050565b60006111b282611187565b9050919050565b6111c2816111a7565b81146111cd57600080fd5b50565b6000813590506111df816111b9565b92915050565b6000602082840312156111fb576111fa6110c2565b5b6000611209848285016111d0565b91505092915050565b6000819050919050565b61122581611212565b811461123057600080fd5b50565b6000813590506112428161121c565b92915050565b60006020828403121561125e5761125d6110c2565b5b600061126c84828501611233565b91505092915050565b6000819050919050565b61128881611275565b82525050565b60006020820190506112a3600083018461127f565b92915050565b6000819050919050565b60006112ce6112c96112c484611187565b6112a9565b611187565b9050919050565b60006112e0826112b3565b9050919050565b60006112f2826112d5565b9050919050565b611302816112e7565b82525050565b600060208201905061131d60008301846112f9565b92915050565b61132c81611275565b811461133757600080fd5b50565b60008135905061134981611323565b92915050565b600060208284031215611365576113646110c2565b5b60006113738482850161133a565b91505092915050565b61138581611212565b82525050565b60006020820190506113a0600083018461137c565b92915050565b600080604083850312156113bd576113bc6110c2565b5b60006113cb8582860161133a565b92505060206113dc858286016111d0565b9150509250929050565b6000806000606084860312156113ff576113fe6110c2565b5b600061140d86828701611233565b935050602061141e86828701611233565b925050604061142f86828701611233565b9150509250925092565b600060608201905061144e600083018661137c565b61145b602083018561137c565b611468604083018461137c565b949350505050565b600061147b826112d5565b9050919050565b61148b81611470565b82525050565b60006020820190506114a66000830184611482565b92915050565b7f4e487b7100000000000000000000000000000000000000000000000000000000600052601160045260246000fd5b60006114e682611212565b91506114f183611212565b92508282026114ff81611212565b91508282048414831517611516576115156114ac565b5b5092915050565b600082825260208201905092915050565b7f436f6c6c61746572616c20697320746f6f206c6f770000000000000000000000600082015250565b600061156460158361151d565b915061156f8261152e565b602082019050919050565b6000602082019050818103600083015261159381611557565b9050919050565b6000815190506115a98161121c565b92915050565b6000602082840312156115c5576115c46110c2565b5b60006115d38482850161159a565b91505092915050565b7f4e487b7100000000000000000000000000000000000000000000000000000000600052601260045260246000fd5b600061161682611212565b915061162183611212565b925082611631576116306115dc565b5b828204905092915050565b7f434450206973206e6f74207375626a65637420746f206c69717569646174696f60008201527f6e00000000000000000000000000000000000000000000000000000000000000602082015250565b600061169860218361151d565b91506116a38261163c565b604082019050919050565b600060208201905081810360008301526116c78161168b565b9050919050565b6116d7816111a7565b82525050565b60006040820190506116f260008301856116ce565b6116ff602083018461137c565b9392505050565b61170f81611151565b811461171a57600080fd5b50565b60008151905061172c81611706565b92915050565b600060208284031215611748576117476110c2565b5b60006117568482850161171d565b91505092915050565b600061176a82611212565b915061177583611212565b925082820190508082111561178d5761178c6114ac565b5b92915050565b6000819050919050565b60006117b86117b36117ae84611793565b6112a9565b611212565b9050919050565b6117c88161179d565b82525050565b600081519050919050565b600082825260208201905092915050565b6000819050602082019050919050565b611803816111a7565b82525050565b600061181583836117fa565b60208301905092915050565b6000602082019050919050565b6000611839826117ce565b61184381856117d9565b935061184e836117ea565b8060005b8381101561187f5781516118668882611809565b975061187183611821565b925050600181019050611852565b5085935050505092915050565b600060a0820190506118a1600083018861137c565b6118ae60208301876117bf565b81810360408301526118c0818661182e565b90506118cf60608301856116ce565b6118dc608083018461137c565b9695505050505050565b600080fd5b6000601f19601f8301169050919050565b7f4e487b7100000000000000000000000000000000000000000000000000000000600052604160045260246000fd5b611934826118eb565b810181811067ffffffffffffffff82111715611953576119526118fc565b5b80604052505050565b60006119666110b8565b9050611972828261192b565b919050565b600067ffffffffffffffff821115611992576119916118fc565b5b602082029050602081019050919050565b600080fd5b60006119bb6119b684611977565b61195c565b905080838252602082019050602084028301858111156119de576119dd6119a3565b5b835b81811015611a0757806119f3888261159a565b8452602084019350506020810190506119e0565b5050509392505050565b600082601f830112611a2657611a256118e6565b5b8151611a368482602086016119a8565b91505092915050565b600060208284031215611a5557611a546110c2565b5b600082015167ffffffffffffffff811115611a7357611a726110c7565b5b611a7f84828501611a11565b91505092915050565b7f4e487b7100000000000000000000000000000000000000000000000000000000600052603260045260246000fd5b600081519050611ac6816111b9565b92915050565b600060208284031215611ae257611ae16110c2565b5b6000611af084828501611ab7565b91505092915050565b6000604082019050611b0e60008301856116ce565b611b1b602083018461127f565b939250505056fea2646970667358221220772045420b60705dd98cc8e38c67f2d10207382fafc8bb08b8daae0f343c968564736f6c63430008140033",
  "linkReferences": {},
  "deployedLinkReferences": {}
}