{
  "_format": "hh-sol-artifact-1",
  "contractName": "IndexCDPFactory",
  "sourceName": "contracts/IndexCDPFactory.sol",
  "abi": [
    {
      "inputs": [
        {
          "internalType": "address",
          "name": "initialOwner",
          "type": "address"
        }
      ],
      "stateMutability": "nonpayable",
      "type": "constructor"
    },
    {
      "inputs": [
        {
          "internalType": "address",
          "name": "owner",
          "type": "address"
        }
      ],
      "name": "OwnableInvalidOwner",
      "type": "error"
    },
    {
      "inputs": [
        {
          "internalType": "address",
          "name": "account",
          "type": "address"
        }
      ],
      "name": "OwnableUnauthorizedAccount",
      "type": "error"
    },
    {
      "anonymous": false,
      "inputs": [
        {
          "indexed": true,
          "internalType": "address",
          "name": "cdpContract",
          "type": "address"
        },
        {
          "indexed": false,
          "internalType": "string",
          "name": "indexType",
          "type": "string"
        }
      ],
      "name": "IndexCDPDeployed",
      "type": "event"
    },
    {
      "anonymous": false,
      "inputs": [
        {
          "indexed": true,
          "internalType": "address",
          "name": "previousOwner",
          "type": "address"
        },
        {
          "indexed": true,
          "internalType": "address",
          "name": "newOwner",
          "type": "address"
        }
      ],
      "name": "OwnershipTransferred",
      "type": "event"
    },
    {
      "inputs": [
        {
          "internalType": "address",
          "name": "collateralToken",
          "type": "address"
        },
        {
          "internalType": "address",
          "name": "phxToken",
          "type": "address"
        },
        {
          "internalType": "address",
          "name": "uniswapV2Router",
          "type": "address"
        },
        {
          "internalType": "uint256",
          "name": "minimumCollateralAmount",
          "type": "uint256"
        },
        {
          "internalType": "uint256",
          "name": "liquidationThreshold",
          "type": "uint256"
        }
      ],
      "name": "deployIndexCDP",
      "outputs": [
        {
          "internalType": "address",
          "name": "",
          "type": "address"
        }
      ],
      "stateMutability": "nonpayable",
      "type": "function"
    },
    {
      "inputs": [
        {
          "internalType": "address",
          "name": "collateralToken",
          "type": "address"
        },
        {
          "internalType": "address",
          "name": "priceFeedAddress",
          "type": "address"
        },
        {
          "internalType": "address",
          "name": "phxToken",
          "type": "address"
        },
        {
          "internalType": "address",
          "name": "uniswapV2Router",
          "type": "address"
        },
        {
          "internalType": "uint256",
          "name": "minimumCollateralAmount",
          "type": "uint256"
        },
        {
          "internalType": "uint256",
          "name": "SP500CollateralizationRatio",
          "type": "uint256"
        },
        {
          "internalType": "uint256",
          "name": "SP500LiquidationThreshold",
          "type": "uint256"
        },
        {
          "internalType": "uint256",
          "name": "SP500StabilityFee",
          "type": "uint256"
        }
      ],
      "name": "deploySP500CDP",
      "outputs": [
        {
          "internalType": "address",
          "name": "",
          "type": "address"
        }
      ],
      "stateMutability": "nonpayable",
      "type": "function"
    },
    {
      "inputs": [],
      "name": "owner",
      "outputs": [
        {
          "internalType": "address",
          "name": "",
          "type": "address"
        }
      ],
      "stateMutability": "view",
      "type": "function"
    },
    {
      "inputs": [],
      "name": "renounceOwnership",
      "outputs": [],
      "stateMutability": "nonpayable",
      "type": "function"
    },
    {
      "inputs": [
        {
          "internalType": "address",
          "name": "newOwner",
          "type": "address"
        }
      ],
      "name": "transferOwnership",
      "outputs": [],
      "stateMutability": "nonpayable",
      "type": "function"
    }
  ],
  "bytecode": "0x60806040523480156200001157600080fd5b5060405162004d8b38038062004d8b833981810160405281019062000037919062000371565b80600073ffffffffffffffffffffffffffffffffffffffff168173ffffffffffffffffffffffffffffffffffffffff1603620000ad5760006040517f1e4fbdf7000000000000000000000000000000000000000000000000000000008152600401620000a49190620003b4565b60405180910390fd5b620000be81620000d760201b60201c565b50620000d0816200019b60201b60201c565b50620003d1565b60008060009054906101000a900473ffffffffffffffffffffffffffffffffffffffff169050816000806101000a81548173ffffffffffffffffffffffffffffffffffffffff021916908373ffffffffffffffffffffffffffffffffffffffff1602179055508173ffffffffffffffffffffffffffffffffffffffff168173ffffffffffffffffffffffffffffffffffffffff167f8be0079c531659141344cd1fd0a4f28419497f9722a3daafe3b4186f6b6457e060405160405180910390a35050565b620001ab6200023460201b60201c565b600073ffffffffffffffffffffffffffffffffffffffff168173ffffffffffffffffffffffffffffffffffffffff1603620002205760006040517f1e4fbdf7000000000000000000000000000000000000000000000000000000008152600401620002179190620003b4565b60405180910390fd5b6200023181620000d760201b60201c565b50565b62000244620002d660201b60201c565b73ffffffffffffffffffffffffffffffffffffffff166200026a620002de60201b60201c565b73ffffffffffffffffffffffffffffffffffffffff1614620002d45762000296620002d660201b60201c565b6040517f118cdaa7000000000000000000000000000000000000000000000000000000008152600401620002cb9190620003b4565b60405180910390fd5b565b600033905090565b60008060009054906101000a900473ffffffffffffffffffffffffffffffffffffffff16905090565b600080fd5b600073ffffffffffffffffffffffffffffffffffffffff82169050919050565b600062000339826200030c565b9050919050565b6200034b816200032c565b81146200035757600080fd5b50565b6000815190506200036b8162000340565b92915050565b6000602082840312156200038a576200038962000307565b5b60006200039a848285016200035a565b91505092915050565b620003ae816200032c565b82525050565b6000602082019050620003cb6000830184620003a3565b92915050565b6149aa80620003e16000396000f3fe60806040523480156200001157600080fd5b50600436106200005e5760003560e01c806322997be51462000063578063715018a614620000995780638da5cb5b14620000a5578063f2fde38b14620000c7578063f463bb7e14620000e7575b600080fd5b6200008160048036038101906200007b919062000569565b6200011d565b60405162000090919062000602565b60405180910390f35b620000a3620001c9565b005b620000af620001e1565b604051620000be919062000602565b60405180910390f35b620000e56004803603810190620000df91906200061f565b6200020a565b005b620001056004803603810190620000ff919062000651565b62000297565b60405162000114919062000602565b60405180910390f35b6000620001296200034c565b600086868686866040516200013e90620004a8565b6200014e9594939291906200072b565b604051809103906000f0801580156200016b573d6000803e3d6000fd5b5090508073ffffffffffffffffffffffffffffffffffffffff167ffac9cfd8e379bbeedd235f01c363791e865d0f194f5ab0bb0016effb8e18da43604051620001b490620007e9565b60405180910390a28091505095945050505050565b620001d36200034c565b620001df6000620003dc565b565b60008060009054906101000a900473ffffffffffffffffffffffffffffffffffffffff16905090565b620002146200034c565b600073ffffffffffffffffffffffffffffffffffffffff168173ffffffffffffffffffffffffffffffffffffffff1603620002895760006040517f1e4fbdf700000000000000000000000000000000000000000000000000000000815260040162000280919062000602565b60405180910390fd5b6200029481620003dc565b50565b6000620002a36200034c565b60008989898989898989604051620002bb90620004b6565b620002ce9897969594939291906200080b565b604051809103906000f080158015620002eb573d6000803e3d6000fd5b5090508073ffffffffffffffffffffffffffffffffffffffff167ffac9cfd8e379bbeedd235f01c363791e865d0f194f5ab0bb0016effb8e18da436040516200033490620008e9565b60405180910390a28091505098975050505050505050565b62000356620004a0565b73ffffffffffffffffffffffffffffffffffffffff1662000376620001e1565b73ffffffffffffffffffffffffffffffffffffffff1614620003da576200039c620004a0565b6040517f118cdaa7000000000000000000000000000000000000000000000000000000008152600401620003d1919062000602565b60405180910390fd5b565b60008060009054906101000a900473ffffffffffffffffffffffffffffffffffffffff169050816000806101000a81548173ffffffffffffffffffffffffffffffffffffffff021916908373ffffffffffffffffffffffffffffffffffffffff1602179055508173ffffffffffffffffffffffffffffffffffffffff168173ffffffffffffffffffffffffffffffffffffffff167f8be0079c531659141344cd1fd0a4f28419497f9722a3daafe3b4186f6b6457e060405160405180910390a35050565b600033905090565b611f3a806200090c83390190565b61212f806200284683390190565b600080fd5b600073ffffffffffffffffffffffffffffffffffffffff82169050919050565b6000620004f682620004c9565b9050919050565b6200050881620004e9565b81146200051457600080fd5b50565b6000813590506200052881620004fd565b92915050565b6000819050919050565b62000543816200052e565b81146200054f57600080fd5b50565b600081359050620005638162000538565b92915050565b600080600080600060a08688031215620005885762000587620004c4565b5b6000620005988882890162000517565b9550506020620005ab8882890162000517565b9450506040620005be8882890162000517565b9350506060620005d18882890162000552565b9250506080620005e48882890162000552565b9150509295509295909350565b620005fc81620004e9565b82525050565b6000602082019050620006196000830184620005f1565b92915050565b600060208284031215620006385762000637620004c4565b5b6000620006488482850162000517565b91505092915050565b600080600080600080600080610100898b031215620006755762000674620004c4565b5b6000620006858b828c0162000517565b9850506020620006988b828c0162000517565b9750506040620006ab8b828c0162000517565b9650506060620006be8b828c0162000517565b9550506080620006d18b828c0162000552565b94505060a0620006e48b828c0162000552565b93505060c0620006f78b828c0162000552565b92505060e06200070a8b828c0162000552565b9150509295985092959890939650565b62000725816200052e565b82525050565b600060a082019050620007426000830188620005f1565b620007516020830187620005f1565b620007606040830186620005f1565b6200076f60608301856200071a565b6200077e60808301846200071a565b9695505050505050565b600082825260208201905092915050565b7f47656e6572696300000000000000000000000000000000000000000000000000600082015250565b6000620007d160078362000788565b9150620007de8262000799565b602082019050919050565b600060208201905081810360008301526200080481620007c2565b9050919050565b60006101008201905062000823600083018b620005f1565b62000832602083018a620005f1565b620008416040830189620005f1565b620008506060830188620005f1565b6200085f60808301876200071a565b6200086e60a08301866200071a565b6200087d60c08301856200071a565b6200088c60e08301846200071a565b9998505050505050505050565b7f5350353030000000000000000000000000000000000000000000000000000000600082015250565b6000620008d160058362000788565b9150620008de8262000899565b602082019050919050565b600060208201905081810360008301526200090481620008c2565b905091905056fe60806040523480156200001157600080fd5b5060405162001f3a38038062001f3a833981810160405281019062000037919062000442565b600160008190555084600260006101000a81548173ffffffffffffffffffffffffffffffffffffffff021916908373ffffffffffffffffffffffffffffffffffffffff16021790555083600360006101000a81548173ffffffffffffffffffffffffffffffffffffffff021916908373ffffffffffffffffffffffffffffffffffffffff16021790555082600460006101000a81548173ffffffffffffffffffffffffffffffffffffffff021916908373ffffffffffffffffffffffffffffffffffffffff1602179055508160068190555080600781905550620001427fe71445b5f116bf904b356709382d9b1ea82930a823eafafc102d69c08195f96f336200014d60201b60201c565b505050505062000523565b6200015e826200018760201b60201c565b6200016f81620001a760201b60201c565b620001818383620001cb60201b60201c565b50505050565b600060016000838152602001908152602001600020600101549050919050565b620001c881620001bc620002ce60201b60201c565b620002d660201b60201c565b50565b6000620001df83836200033260201b60201c565b620002c357600180600085815260200190815260200160002060000160008473ffffffffffffffffffffffffffffffffffffffff1673ffffffffffffffffffffffffffffffffffffffff16815260200190815260200160002060006101000a81548160ff0219169083151502179055506200025f620002ce60201b60201c565b73ffffffffffffffffffffffffffffffffffffffff168273ffffffffffffffffffffffffffffffffffffffff16847f2f8788117e7eff1d82e926ec794901d17c78024a50270940304540a733656f0d60405160405180910390a460019050620002c8565b600090505b92915050565b600033905090565b620002e882826200033260201b60201c565b6200032e5780826040517fe2517d3f00000000000000000000000000000000000000000000000000000000815260040162000325929190620004f6565b60405180910390fd5b5050565b60006001600084815260200190815260200160002060000160008373ffffffffffffffffffffffffffffffffffffffff1673ffffffffffffffffffffffffffffffffffffffff16815260200190815260200160002060009054906101000a900460ff16905092915050565b600080fd5b600073ffffffffffffffffffffffffffffffffffffffff82169050919050565b6000620003cf82620003a2565b9050919050565b620003e181620003c2565b8114620003ed57600080fd5b50565b6000815190506200040181620003d6565b92915050565b6000819050919050565b6200041c8162000407565b81146200042857600080fd5b50565b6000815190506200043c8162000411565b92915050565b600080600080600060a086880312156200046157620004606200039d565b5b60006200047188828901620003f0565b95505060206200048488828901620003f0565b94505060406200049788828901620003f0565b9350506060620004aa888289016200042b565b9250506080620004bd888289016200042b565b9150509295509295909350565b620004d581620003c2565b82525050565b6000819050919050565b620004f081620004db565b82525050565b60006040820190506200050d6000830185620004ca565b6200051c6020830184620004e5565b9392505050565b611a0780620005336000396000f3fe608060405234801561001057600080fd5b50600436106101215760003560e01c8063726c59d4116100ad578063b2016bd411610071578063b2016bd41461031c578063c61d45ca1461033a578063d539139314610358578063d547741f14610376578063eee2518a1461039257610121565b8063726c59d4146102645780638096252a14610280578063840c7e241461029c57806391d14854146102ce578063a217fddf146102fe57610121565b80631694505e116100f45780631694505e146101c0578063248a9ca3146101de5780632f2ff15d1461020e57806336568abe1461022a5780634031234c1461024657610121565b806301ffc9a714610126578063035b95f51461015657806305487369146101865780630bd4a922146101a2575b600080fd5b610140600480360381019061013b919061107c565b6103b0565b60405161014d91906110c4565b60405180910390f35b610170600480360381019061016b919061113d565b61042a565b60405161017d91906110c4565b60405180910390f35b6101a0600480360381019061019b91906111a0565b6104b7565b005b6101aa6106fb565b6040516101b791906111e6565b60405180910390f35b6101c861071f565b6040516101d59190611260565b60405180910390f35b6101f860048036038101906101f391906112a7565b610745565b60405161020591906111e6565b60405180910390f35b610228600480360381019061022391906112d4565b610765565b005b610244600480360381019061023f91906112d4565b610787565b005b61024e610802565b60405161025b9190611323565b60405180910390f35b61027e6004803603810190610279919061113d565b610808565b005b61029a600480360381019061029591906111a0565b61088e565b005b6102b660048036038101906102b1919061113d565b610a14565b6040516102c59392919061133e565b60405180910390f35b6102e860048036038101906102e391906112d4565b610a3e565b6040516102f591906110c4565b60405180910390f35b610306610aa9565b60405161031391906111e6565b60405180910390f35b610324610ab0565b6040516103319190611396565b60405180910390f35b610342610ad6565b60405161034f9190611396565b60405180910390f35b610360610afc565b60405161036d91906111e6565b60405180910390f35b610390600480360381019061038b91906112d4565b610b20565b005b61039a610b42565b6040516103a79190611323565b60405180910390f35b60007f7965db0b000000000000000000000000000000000000000000000000000000007bffffffffffffffffffffffffffffffffffffffffffffffffffffffff1916827bffffffffffffffffffffffffffffffffffffffffffffffffffffffff19161480610423575061042282610b48565b5b9050919050565b600080600560008473ffffffffffffffffffffffffffffffffffffffff1673ffffffffffffffffffffffffffffffffffffffff16815260200190815260200160002060405180606001604052908160008201548152602001600182015481526020016002820154815250509050806020015160075482600001516104ae91906113e0565b10915050919050565b6104bf610bb2565b7fe71445b5f116bf904b356709382d9b1ea82930a823eafafc102d69c08195f96f6104e981610bf8565b60065482101561052e576040517f08c379a00000000000000000000000000000000000000000000000000000000081526004016105259061147f565b60405180910390fd5b600260009054906101000a900473ffffffffffffffffffffffffffffffffffffffff1673ffffffffffffffffffffffffffffffffffffffff166323b872dd3330856040518463ffffffff1660e01b815260040161058d939291906114ae565b6020604051808303816000875af11580156105ac573d6000803e3d6000fd5b505050506040513d601f19601f820116820180604052508101906105d09190611511565b5060006105dc83610c0c565b9050604051806060016040528084815260200182815260200142815250600560003373ffffffffffffffffffffffffffffffffffffffff1673ffffffffffffffffffffffffffffffffffffffff1681526020019081526020016000206000820151816000015560208201518160010155604082015181600201559050506000600360009054906101000a900473ffffffffffffffffffffffffffffffffffffffff1690508073ffffffffffffffffffffffffffffffffffffffff166340c10f1933866040518363ffffffff1660e01b81526004016106bb92919061153e565b600060405180830381600087803b1580156106d557600080fd5b505af11580156106e9573d6000803e3d6000fd5b505050505050506106f8610c22565b50565b7fe71445b5f116bf904b356709382d9b1ea82930a823eafafc102d69c08195f96f81565b600460009054906101000a900473ffffffffffffffffffffffffffffffffffffffff1681565b600060016000838152602001908152602001600020600101549050919050565b61076e82610745565b61077781610bf8565b6107818383610c2c565b50505050565b61078f610d1d565b73ffffffffffffffffffffffffffffffffffffffff168173ffffffffffffffffffffffffffffffffffffffff16146107f3576040517f6697b23200000000000000000000000000000000000000000000000000000000815260040160405180910390fd5b6107fd8282610d25565b505050565b60075481565b610810610bb2565b7fe71445b5f116bf904b356709382d9b1ea82930a823eafafc102d69c08195f96f61083a81610bf8565b6108438261042a565b610882576040517f08c379a0000000000000000000000000000000000000000000000000000000008152600401610879906115d9565b60405180910390fd5b5061088b610c22565b50565b600360009054906101000a900473ffffffffffffffffffffffffffffffffffffffff1673ffffffffffffffffffffffffffffffffffffffff1663095ea7b3600460009054906101000a900473ffffffffffffffffffffffffffffffffffffffff16836040518363ffffffff1660e01b815260040161090d92919061153e565b6020604051808303816000875af115801561092c573d6000803e3d6000fd5b505050506040513d601f19601f820116820180604052508101906109509190611511565b50600460009054906101000a900473ffffffffffffffffffffffffffffffffffffffff1673ffffffffffffffffffffffffffffffffffffffff166338ed173982600061099a610e18565b33600f426109a891906115f9565b6040518663ffffffff1660e01b81526004016109c8959493929190611726565b6000604051808303816000875af11580156109e7573d6000803e3d6000fd5b505050506040513d6000823e3d601f19601f82011682018060405250810190610a1091906118ee565b5050565b60056020528060005260406000206000915090508060000154908060010154908060020154905083565b60006001600084815260200190815260200160002060000160008373ffffffffffffffffffffffffffffffffffffffff1673ffffffffffffffffffffffffffffffffffffffff16815260200190815260200160002060009054906101000a900460ff16905092915050565b6000801b81565b600260009054906101000a900473ffffffffffffffffffffffffffffffffffffffff1681565b600360009054906101000a900473ffffffffffffffffffffffffffffffffffffffff1681565b7f9f2df0fed2c77648de5860a4cc508cd0818c85b8b8a1ab4ceeef8d981c8956a681565b610b2982610745565b610b3281610bf8565b610b3c8383610d25565b50505050565b60065481565b60007f01ffc9a7000000000000000000000000000000000000000000000000000000007bffffffffffffffffffffffffffffffffffffffffffffffffffffffff1916827bffffffffffffffffffffffffffffffffffffffffffffffffffffffff1916149050919050565b600260005403610bee576040517f3ee5aeb500000000000000000000000000000000000000000000000000000000815260040160405180910390fd5b6002600081905550565b610c0981610c04610d1d565b610fbf565b50565b6000600282610c1b91906113e0565b9050919050565b6001600081905550565b6000610c388383610a3e565b610d1257600180600085815260200190815260200160002060000160008473ffffffffffffffffffffffffffffffffffffffff1673ffffffffffffffffffffffffffffffffffffffff16815260200190815260200160002060006101000a81548160ff021916908315150217905550610caf610d1d565b73ffffffffffffffffffffffffffffffffffffffff168273ffffffffffffffffffffffffffffffffffffffff16847f2f8788117e7eff1d82e926ec794901d17c78024a50270940304540a733656f0d60405160405180910390a460019050610d17565b600090505b92915050565b600033905090565b6000610d318383610a3e565b15610e0d5760006001600085815260200190815260200160002060000160008473ffffffffffffffffffffffffffffffffffffffff1673ffffffffffffffffffffffffffffffffffffffff16815260200190815260200160002060006101000a81548160ff021916908315150217905550610daa610d1d565b73ffffffffffffffffffffffffffffffffffffffff168273ffffffffffffffffffffffffffffffffffffffff16847ff6391f5c32d9c69d2a47ea670b442974b53935d1edc7fd64eb21e047a839171b60405160405180910390a460019050610e12565b600090505b92915050565b60606000600267ffffffffffffffff811115610e3757610e36611796565b5b604051908082528060200260200182016040528015610e655781602001602082028036833780820191505090505b509050600360009054906101000a900473ffffffffffffffffffffffffffffffffffffffff1681600081518110610e9f57610e9e611937565b5b602002602001019073ffffffffffffffffffffffffffffffffffffffff16908173ffffffffffffffffffffffffffffffffffffffff1681525050600460009054906101000a900473ffffffffffffffffffffffffffffffffffffffff1673ffffffffffffffffffffffffffffffffffffffff1663ad5c46486040518163ffffffff1660e01b8152600401602060405180830381865afa158015610f46573d6000803e3d6000fd5b505050506040513d601f19601f82011682018060405250810190610f6a919061197b565b81600181518110610f7e57610f7d611937565b5b602002602001019073ffffffffffffffffffffffffffffffffffffffff16908173ffffffffffffffffffffffffffffffffffffffff16815250508091505090565b610fc98282610a3e565b61100c5780826040517fe2517d3f0000000000000000000000000000000000000000000000000000000081526004016110039291906119a8565b60405180910390fd5b5050565b6000604051905090565b600080fd5b600080fd5b60007fffffffff0000000000000000000000000000000000000000000000000000000082169050919050565b61105981611024565b811461106457600080fd5b50565b60008135905061107681611050565b92915050565b6000602082840312156110925761109161101a565b5b60006110a084828501611067565b91505092915050565b60008115159050919050565b6110be816110a9565b82525050565b60006020820190506110d960008301846110b5565b92915050565b600073ffffffffffffffffffffffffffffffffffffffff82169050919050565b600061110a826110df565b9050919050565b61111a816110ff565b811461112557600080fd5b50565b60008135905061113781611111565b92915050565b6000602082840312156111535761115261101a565b5b600061116184828501611128565b91505092915050565b6000819050919050565b61117d8161116a565b811461118857600080fd5b50565b60008135905061119a81611174565b92915050565b6000602082840312156111b6576111b561101a565b5b60006111c48482850161118b565b91505092915050565b6000819050919050565b6111e0816111cd565b82525050565b60006020820190506111fb60008301846111d7565b92915050565b6000819050919050565b600061122661122161121c846110df565b611201565b6110df565b9050919050565b60006112388261120b565b9050919050565b600061124a8261122d565b9050919050565b61125a8161123f565b82525050565b60006020820190506112756000830184611251565b92915050565b611284816111cd565b811461128f57600080fd5b50565b6000813590506112a18161127b565b92915050565b6000602082840312156112bd576112bc61101a565b5b60006112cb84828501611292565b91505092915050565b600080604083850312156112eb576112ea61101a565b5b60006112f985828601611292565b925050602061130a85828601611128565b9150509250929050565b61131d8161116a565b82525050565b60006020820190506113386000830184611314565b92915050565b60006060820190506113536000830186611314565b6113606020830185611314565b61136d6040830184611314565b949350505050565b60006113808261122d565b9050919050565b61139081611375565b82525050565b60006020820190506113ab6000830184611387565b92915050565b7f4e487b7100000000000000000000000000000000000000000000000000000000600052601160045260246000fd5b60006113eb8261116a565b91506113f68361116a565b92508282026114048161116a565b9150828204841483151761141b5761141a6113b1565b5b5092915050565b600082825260208201905092915050565b7f436f6c6c61746572616c20697320746f6f206c6f770000000000000000000000600082015250565b6000611469601583611422565b915061147482611433565b602082019050919050565b600060208201905081810360008301526114988161145c565b9050919050565b6114a8816110ff565b82525050565b60006060820190506114c3600083018661149f565b6114d0602083018561149f565b6114dd6040830184611314565b949350505050565b6114ee816110a9565b81146114f957600080fd5b50565b60008151905061150b816114e5565b92915050565b6000602082840312156115275761152661101a565b5b6000611535848285016114fc565b91505092915050565b6000604082019050611553600083018561149f565b6115606020830184611314565b9392505050565b7f434450206973206e6f74207375626a65637420746f206c69717569646174696f60008201527f6e00000000000000000000000000000000000000000000000000000000000000602082015250565b60006115c3602183611422565b91506115ce82611567565b604082019050919050565b600060208201905081810360008301526115f2816115b6565b9050919050565b60006116048261116a565b915061160f8361116a565b9250828201905080821115611627576116266113b1565b5b92915050565b6000819050919050565b600061165261164d6116488461162d565b611201565b61116a565b9050919050565b61166281611637565b82525050565b600081519050919050565b600082825260208201905092915050565b6000819050602082019050919050565b61169d816110ff565b82525050565b60006116af8383611694565b60208301905092915050565b6000602082019050919050565b60006116d382611668565b6116dd8185611673565b93506116e883611684565b8060005b8381101561171957815161170088826116a3565b975061170b836116bb565b9250506001810190506116ec565b5085935050505092915050565b600060a08201905061173b6000830188611314565b6117486020830187611659565b818103604083015261175a81866116c8565b9050611769606083018561149f565b6117766080830184611314565b9695505050505050565b600080fd5b6000601f19601f8301169050919050565b7f4e487b7100000000000000000000000000000000000000000000000000000000600052604160045260246000fd5b6117ce82611785565b810181811067ffffffffffffffff821117156117ed576117ec611796565b5b80604052505050565b6000611800611010565b905061180c82826117c5565b919050565b600067ffffffffffffffff82111561182c5761182b611796565b5b602082029050602081019050919050565b600080fd5b60008151905061185181611174565b92915050565b600061186a61186584611811565b6117f6565b9050808382526020820190506020840283018581111561188d5761188c61183d565b5b835b818110156118b657806118a28882611842565b84526020840193505060208101905061188f565b5050509392505050565b600082601f8301126118d5576118d4611780565b5b81516118e5848260208601611857565b91505092915050565b6000602082840312156119045761190361101a565b5b600082015167ffffffffffffffff8111156119225761192161101f565b5b61192e848285016118c0565b91505092915050565b7f4e487b7100000000000000000000000000000000000000000000000000000000600052603260045260246000fd5b60008151905061197581611111565b92915050565b6000602082840312156119915761199061101a565b5b600061199f84828501611966565b91505092915050565b60006040820190506119bd600083018561149f565b6119ca60208301846111d7565b939250505056fea2646970667358221220ca4a3134c3c81100d280f9a183242067d92f7777d186a64957579d8bd8dda27a64736f6c6343000814003360806040523480156200001157600080fd5b506040516200212f3803806200212f8339818101604052810190620000379190620004a5565b8786868685600160008190555084600260006101000a81548173ffffffffffffffffffffffffffffffffffffffff021916908373ffffffffffffffffffffffffffffffffffffffff16021790555083600360006101000a81548173ffffffffffffffffffffffffffffffffffffffff021916908373ffffffffffffffffffffffffffffffffffffffff16021790555082600460006101000a81548173ffffffffffffffffffffffffffffffffffffffff021916908373ffffffffffffffffffffffffffffffffffffffff1602179055508160068190555080600781905550620001477fe71445b5f116bf904b356709382d9b1ea82930a823eafafc102d69c08195f96f33620001b060201b60201c565b505050505086600b60006101000a81548173ffffffffffffffffffffffffffffffffffffffff021916908373ffffffffffffffffffffffffffffffffffffffff160217905550826008819055508160098190555080600a819055505050505050505050620005c7565b620001c182620001ea60201b60201c565b620001d2816200020a60201b60201c565b620001e483836200022e60201b60201c565b50505050565b600060016000838152602001908152602001600020600101549050919050565b6200022b816200021f6200033160201b60201c565b6200033960201b60201c565b50565b60006200024283836200039560201b60201c565b6200032657600180600085815260200190815260200160002060000160008473ffffffffffffffffffffffffffffffffffffffff1673ffffffffffffffffffffffffffffffffffffffff16815260200190815260200160002060006101000a81548160ff021916908315150217905550620002c26200033160201b60201c565b73ffffffffffffffffffffffffffffffffffffffff168273ffffffffffffffffffffffffffffffffffffffff16847f2f8788117e7eff1d82e926ec794901d17c78024a50270940304540a733656f0d60405160405180910390a4600190506200032b565b600090505b92915050565b600033905090565b6200034b82826200039560201b60201c565b620003915780826040517fe2517d3f000000000000000000000000000000000000000000000000000000008152600401620003889291906200059a565b60405180910390fd5b5050565b60006001600084815260200190815260200160002060000160008373ffffffffffffffffffffffffffffffffffffffff1673ffffffffffffffffffffffffffffffffffffffff16815260200190815260200160002060009054906101000a900460ff16905092915050565b600080fd5b600073ffffffffffffffffffffffffffffffffffffffff82169050919050565b6000620004328262000405565b9050919050565b620004448162000425565b81146200045057600080fd5b50565b600081519050620004648162000439565b92915050565b6000819050919050565b6200047f816200046a565b81146200048b57600080fd5b50565b6000815190506200049f8162000474565b92915050565b600080600080600080600080610100898b031215620004c957620004c862000400565b5b6000620004d98b828c0162000453565b9850506020620004ec8b828c0162000453565b9750506040620004ff8b828c0162000453565b9650506060620005128b828c0162000453565b9550506080620005258b828c016200048e565b94505060a0620005388b828c016200048e565b93505060c06200054b8b828c016200048e565b92505060e06200055e8b828c016200048e565b9150509295985092959890939650565b620005798162000425565b82525050565b6000819050919050565b62000594816200057f565b82525050565b6000604082019050620005b160008301856200056e565b620005c0602083018462000589565b9392505050565b611b5880620005d76000396000f3fe608060405234801561001057600080fd5b50600436106101585760003560e01c8063726c59d4116100c3578063b2016bd41161007c578063b2016bd4146103c9578063c61d45ca146103e7578063d539139314610405578063d547741f14610423578063ed19e4151461043f578063eee2518a1461045d57610158565b8063726c59d4146102f35780638096252a1461030f578063840c7e241461032b57806391d148541461035d578063a217fddf1461038d578063ab70ace3146103ab57610158565b806329325fe91161011557806329325fe9146102455780632f2ff15d1461026357806331f894e71461027f57806336568abe1461029d5780634031234c146102b957806369f4a715146102d757610158565b806301ffc9a71461015d578063035b95f51461018d57806305487369146101bd5780630bd4a922146101d95780631694505e146101f7578063248a9ca314610215575b600080fd5b61017760048036038101906101729190611124565b61047b565b604051610184919061116c565b60405180910390f35b6101a760048036038101906101a291906111e5565b6104f5565b6040516101b4919061116c565b60405180910390f35b6101d760048036038101906101d29190611248565b610582565b005b6101e1610653565b6040516101ee919061128e565b60405180910390f35b6101ff610677565b60405161020c9190611308565b60405180910390f35b61022f600480360381019061022a919061134f565b61069d565b60405161023c919061128e565b60405180910390f35b61024d6106bd565b60405161025a919061138b565b60405180910390f35b61027d600480360381019061027891906113a6565b61076e565b005b610287610790565b604051610294919061138b565b60405180910390f35b6102b760048036038101906102b291906113a6565b610796565b005b6102c1610811565b6040516102ce919061138b565b60405180910390f35b6102f160048036038101906102ec91906113e6565b610817565b005b61030d600480360381019061030891906111e5565b610897565b005b61032960048036038101906103249190611248565b61091d565b005b610345600480360381019061034091906111e5565b610aa3565b60405161035493929190611439565b60405180910390f35b610377600480360381019061037291906113a6565b610acd565b604051610384919061116c565b60405180910390f35b610395610b38565b6040516103a2919061128e565b60405180910390f35b6103b3610b3f565b6040516103c0919061138b565b60405180910390f35b6103d1610b45565b6040516103de9190611491565b60405180910390f35b6103ef610b6b565b6040516103fc9190611491565b60405180910390f35b61040d610b91565b60405161041a919061128e565b60405180910390f35b61043d600480360381019061043891906113a6565b610bb5565b005b610447610bd7565b604051610454919061138b565b60405180910390f35b610465610bdd565b604051610472919061138b565b60405180910390f35b60007f7965db0b000000000000000000000000000000000000000000000000000000007bffffffffffffffffffffffffffffffffffffffffffffffffffffffff1916827bffffffffffffffffffffffffffffffffffffffffffffffffffffffff191614806104ee57506104ed82610be3565b5b9050919050565b600080600560008473ffffffffffffffffffffffffffffffffffffffff1673ffffffffffffffffffffffffffffffffffffffff168152602001908152602001600020604051806060016040529081600082015481526020016001820154815260200160028201548152505090508060200151600754826000015161057991906114db565b10915050919050565b6006548110156105c7576040517f08c379a00000000000000000000000000000000000000000000000000000000081526004016105be9061157a565b60405180910390fd5b60006105d282610c4d565b9050604051806060016040528083815260200182815260200142815250600560003373ffffffffffffffffffffffffffffffffffffffff1673ffffffffffffffffffffffffffffffffffffffff1681526020019081526020016000206000820151816000015560208201518160010155604082015181600201559050505050565b7fe71445b5f116bf904b356709382d9b1ea82930a823eafafc102d69c08195f96f81565b600460009054906101000a900473ffffffffffffffffffffffffffffffffffffffff1681565b600060016000838152602001908152602001600020600101549050919050565b600080600b60009054906101000a900473ffffffffffffffffffffffffffffffffffffffff1673ffffffffffffffffffffffffffffffffffffffff16638e15f4736040518163ffffffff1660e01b8152600401602060405180830381865afa15801561072d573d6000803e3d6000fd5b505050506040513d601f19601f8201168201806040525081019061075191906115af565b90506000620f424082610764919061160b565b9050809250505090565b6107778261069d565b61078081610c70565b61078a8383610c84565b50505050565b600a5481565b61079e610d75565b73ffffffffffffffffffffffffffffffffffffffff168173ffffffffffffffffffffffffffffffffffffffff1614610802576040517f6697b23200000000000000000000000000000000000000000000000000000000815260040160405180910390fd5b61080c8282610d7d565b505050565b60075481565b7f9f2df0fed2c77648de5860a4cc508cd0818c85b8b8a1ab4ceeef8d981c8956a661084181610c70565b836008819055508260098190555081600a819055507fe9ad3c44048b467a1adc4e76b6b542903424166ab9c67860782eebcf95463a2d84848460405161088993929190611439565b60405180910390a150505050565b61089f610e70565b7fe71445b5f116bf904b356709382d9b1ea82930a823eafafc102d69c08195f96f6108c981610c70565b6108d2826104f5565b610911576040517f08c379a0000000000000000000000000000000000000000000000000000000008152600401610908906116ae565b60405180910390fd5b5061091a610eb6565b50565b600360009054906101000a900473ffffffffffffffffffffffffffffffffffffffff1673ffffffffffffffffffffffffffffffffffffffff1663095ea7b3600460009054906101000a900473ffffffffffffffffffffffffffffffffffffffff16836040518363ffffffff1660e01b815260040161099c9291906116dd565b6020604051808303816000875af11580156109bb573d6000803e3d6000fd5b505050506040513d601f19601f820116820180604052508101906109df9190611732565b50600460009054906101000a900473ffffffffffffffffffffffffffffffffffffffff1673ffffffffffffffffffffffffffffffffffffffff166338ed1739826000610a29610ec0565b33600f42610a37919061175f565b6040518663ffffffff1660e01b8152600401610a5795949392919061188c565b6000604051808303816000875af1158015610a76573d6000803e3d6000fd5b505050506040513d6000823e3d601f19601f82011682018060405250810190610a9f9190611a3f565b5050565b60056020528060005260406000206000915090508060000154908060010154908060020154905083565b60006001600084815260200190815260200160002060000160008373ffffffffffffffffffffffffffffffffffffffff1673ffffffffffffffffffffffffffffffffffffffff16815260200190815260200160002060009054906101000a900460ff16905092915050565b6000801b81565b60095481565b600260009054906101000a900473ffffffffffffffffffffffffffffffffffffffff1681565b600360009054906101000a900473ffffffffffffffffffffffffffffffffffffffff1681565b7f9f2df0fed2c77648de5860a4cc508cd0818c85b8b8a1ab4ceeef8d981c8956a681565b610bbe8261069d565b610bc781610c70565b610bd18383610d7d565b50505050565b60085481565b60065481565b60007f01ffc9a7000000000000000000000000000000000000000000000000000000007bffffffffffffffffffffffffffffffffffffffffffffffffffffffff1916827bffffffffffffffffffffffffffffffffffffffffffffffffffffffff1916149050919050565b6000606460085483610c5f91906114db565b610c69919061160b565b9050919050565b610c8181610c7c610d75565b611067565b50565b6000610c908383610acd565b610d6a57600180600085815260200190815260200160002060000160008473ffffffffffffffffffffffffffffffffffffffff1673ffffffffffffffffffffffffffffffffffffffff16815260200190815260200160002060006101000a81548160ff021916908315150217905550610d07610d75565b73ffffffffffffffffffffffffffffffffffffffff168273ffffffffffffffffffffffffffffffffffffffff16847f2f8788117e7eff1d82e926ec794901d17c78024a50270940304540a733656f0d60405160405180910390a460019050610d6f565b600090505b92915050565b600033905090565b6000610d898383610acd565b15610e655760006001600085815260200190815260200160002060000160008473ffffffffffffffffffffffffffffffffffffffff1673ffffffffffffffffffffffffffffffffffffffff16815260200190815260200160002060006101000a81548160ff021916908315150217905550610e02610d75565b73ffffffffffffffffffffffffffffffffffffffff168273ffffffffffffffffffffffffffffffffffffffff16847ff6391f5c32d9c69d2a47ea670b442974b53935d1edc7fd64eb21e047a839171b60405160405180910390a460019050610e6a565b600090505b92915050565b600260005403610eac576040517f3ee5aeb500000000000000000000000000000000000000000000000000000000815260040160405180910390fd5b6002600081905550565b6001600081905550565b60606000600267ffffffffffffffff811115610edf57610ede6118fc565b5b604051908082528060200260200182016040528015610f0d5781602001602082028036833780820191505090505b509050600360009054906101000a900473ffffffffffffffffffffffffffffffffffffffff1681600081518110610f4757610f46611a88565b5b602002602001019073ffffffffffffffffffffffffffffffffffffffff16908173ffffffffffffffffffffffffffffffffffffffff1681525050600460009054906101000a900473ffffffffffffffffffffffffffffffffffffffff1673ffffffffffffffffffffffffffffffffffffffff1663ad5c46486040518163ffffffff1660e01b8152600401602060405180830381865afa158015610fee573d6000803e3d6000fd5b505050506040513d601f19601f820116820180604052508101906110129190611acc565b8160018151811061102657611025611a88565b5b602002602001019073ffffffffffffffffffffffffffffffffffffffff16908173ffffffffffffffffffffffffffffffffffffffff16815250508091505090565b6110718282610acd565b6110b45780826040517fe2517d3f0000000000000000000000000000000000000000000000000000000081526004016110ab929190611af9565b60405180910390fd5b5050565b6000604051905090565b600080fd5b600080fd5b60007fffffffff0000000000000000000000000000000000000000000000000000000082169050919050565b611101816110cc565b811461110c57600080fd5b50565b60008135905061111e816110f8565b92915050565b60006020828403121561113a576111396110c2565b5b60006111488482850161110f565b91505092915050565b60008115159050919050565b61116681611151565b82525050565b6000602082019050611181600083018461115d565b92915050565b600073ffffffffffffffffffffffffffffffffffffffff82169050919050565b60006111b282611187565b9050919050565b6111c2816111a7565b81146111cd57600080fd5b50565b6000813590506111df816111b9565b92915050565b6000602082840312156111fb576111fa6110c2565b5b6000611209848285016111d0565b91505092915050565b6000819050919050565b61122581611212565b811461123057600080fd5b50565b6000813590506112428161121c565b92915050565b60006020828403121561125e5761125d6110c2565b5b600061126c84828501611233565b91505092915050565b6000819050919050565b61128881611275565b82525050565b60006020820190506112a3600083018461127f565b92915050565b6000819050919050565b60006112ce6112c96112c484611187565b6112a9565b611187565b9050919050565b60006112e0826112b3565b9050919050565b60006112f2826112d5565b9050919050565b611302816112e7565b82525050565b600060208201905061131d60008301846112f9565b92915050565b61132c81611275565b811461133757600080fd5b50565b60008135905061134981611323565b92915050565b600060208284031215611365576113646110c2565b5b60006113738482850161133a565b91505092915050565b61138581611212565b82525050565b60006020820190506113a0600083018461137c565b92915050565b600080604083850312156113bd576113bc6110c2565b5b60006113cb8582860161133a565b92505060206113dc858286016111d0565b9150509250929050565b6000806000606084860312156113ff576113fe6110c2565b5b600061140d86828701611233565b935050602061141e86828701611233565b925050604061142f86828701611233565b9150509250925092565b600060608201905061144e600083018661137c565b61145b602083018561137c565b611468604083018461137c565b949350505050565b600061147b826112d5565b9050919050565b61148b81611470565b82525050565b60006020820190506114a66000830184611482565b92915050565b7f4e487b7100000000000000000000000000000000000000000000000000000000600052601160045260246000fd5b60006114e682611212565b91506114f183611212565b92508282026114ff81611212565b91508282048414831517611516576115156114ac565b5b5092915050565b600082825260208201905092915050565b7f436f6c6c61746572616c20697320746f6f206c6f770000000000000000000000600082015250565b600061156460158361151d565b915061156f8261152e565b602082019050919050565b6000602082019050818103600083015261159381611557565b9050919050565b6000815190506115a98161121c565b92915050565b6000602082840312156115c5576115c46110c2565b5b60006115d38482850161159a565b91505092915050565b7f4e487b7100000000000000000000000000000000000000000000000000000000600052601260045260246000fd5b600061161682611212565b915061162183611212565b925082611631576116306115dc565b5b828204905092915050565b7f434450206973206e6f74207375626a65637420746f206c69717569646174696f60008201527f6e00000000000000000000000000000000000000000000000000000000000000602082015250565b600061169860218361151d565b91506116a38261163c565b604082019050919050565b600060208201905081810360008301526116c78161168b565b9050919050565b6116d7816111a7565b82525050565b60006040820190506116f260008301856116ce565b6116ff602083018461137c565b9392505050565b61170f81611151565b811461171a57600080fd5b50565b60008151905061172c81611706565b92915050565b600060208284031215611748576117476110c2565b5b60006117568482850161171d565b91505092915050565b600061176a82611212565b915061177583611212565b925082820190508082111561178d5761178c6114ac565b5b92915050565b6000819050919050565b60006117b86117b36117ae84611793565b6112a9565b611212565b9050919050565b6117c88161179d565b82525050565b600081519050919050565b600082825260208201905092915050565b6000819050602082019050919050565b611803816111a7565b82525050565b600061181583836117fa565b60208301905092915050565b6000602082019050919050565b6000611839826117ce565b61184381856117d9565b935061184e836117ea565b8060005b8381101561187f5781516118668882611809565b975061187183611821565b925050600181019050611852565b5085935050505092915050565b600060a0820190506118a1600083018861137c565b6118ae60208301876117bf565b81810360408301526118c0818661182e565b90506118cf60608301856116ce565b6118dc608083018461137c565b9695505050505050565b600080fd5b6000601f19601f8301169050919050565b7f4e487b7100000000000000000000000000000000000000000000000000000000600052604160045260246000fd5b611934826118eb565b810181811067ffffffffffffffff82111715611953576119526118fc565b5b80604052505050565b60006119666110b8565b9050611972828261192b565b919050565b600067ffffffffffffffff821115611992576119916118fc565b5b602082029050602081019050919050565b600080fd5b60006119bb6119b684611977565b61195c565b905080838252602082019050602084028301858111156119de576119dd6119a3565b5b835b81811015611a0757806119f3888261159a565b8452602084019350506020810190506119e0565b5050509392505050565b600082601f830112611a2657611a256118e6565b5b8151611a368482602086016119a8565b91505092915050565b600060208284031215611a5557611a546110c2565b5b600082015167ffffffffffffffff811115611a7357611a726110c7565b5b611a7f84828501611a11565b91505092915050565b7f4e487b7100000000000000000000000000000000000000000000000000000000600052603260045260246000fd5b600081519050611ac6816111b9565b92915050565b600060208284031215611ae257611ae16110c2565b5b6000611af084828501611ab7565b91505092915050565b6000604082019050611b0e60008301856116ce565b611b1b602083018461127f565b939250505056fea2646970667358221220772045420b60705dd98cc8e38c67f2d10207382fafc8bb08b8daae0f343c968564736f6c63430008140033a26469706673582212206e57e50d0f4f2d0b19ac9ccfb59b10723c2a45e65ffddadf893e746e0e17818964736f6c63430008140033",
  "linkReferences": {},
  "deployedLinkReferences": {}
}