{"contracts/libraries/CDPHelper.sol":{"CDPHelper":{"abi":[{"inputs":[],"name":"INTEREST_RATE_PER_YEAR","outputs":[{"internalType":"uint256","name":"","type":"uint256"}],"stateMutability":"view","type":"function"},{"inputs":[],"name":"SECONDS_IN_A_YEAR","outputs":[{"internalType":"uint256","name":"","type":"uint256"}],"stateMutability":"view","type":"function"}],"evm":{"bytecode":{"linkReferences":{},"object":"60e9610052600b82828239805160001a607314610045577f4e487b7100000000000000000000000000000000000000000000000000000000600052600060045260246000fd5b30600052607381538281f3fe7300000000000000000000000000000000000000003014608060405260043610603d5760003560e01c8063c4fa17a4146042578063eac1377f14605c575b600080fd5b60486076565b60405160539190609a565b60405180910390f35b6062607e565b604051606d9190609a565b60405180910390f35b6301e1338081565b600581565b6000819050919050565b6094816083565b82525050565b600060208201905060ad6000830184608d565b9291505056fea264697066735822122084a00807d21f66bdb7830ce3f6e7c16ccfb0c185b88675d9107ed19becadfdc964736f6c63430008140033","opcodes":"PUSH1 0xE9 PUSH2 0x52 PUSH1 0xB DUP3 DUP3 DUP3 CODECOPY DUP1 MLOAD PUSH1 0x0 BYTE PUSH1 0x73 EQ PUSH2 0x45 JUMPI PUSH32 0x4E487B7100000000000000000000000000000000000000000000000000000000 PUSH1 0x0 MSTORE PUSH1 0x0 PUSH1 0x4 MSTORE PUSH1 0x24 PUSH1 0x0 REVERT JUMPDEST ADDRESS PUSH1 0x0 MSTORE PUSH1 0x73 DUP2 MSTORE8 DUP3 DUP2 RETURN INVALID PUSH20 0x0 ADDRESS EQ PUSH1 0x80 PUSH1 0x40 MSTORE PUSH1 0x4 CALLDATASIZE LT PUSH1 0x3D JUMPI PUSH1 0x0 CALLDATALOAD PUSH1 0xE0 SHR DUP1 PUSH4 0xC4FA17A4 EQ PUSH1 0x42 JUMPI DUP1 PUSH4 0xEAC1377F EQ PUSH1 0x5C JUMPI JUMPDEST PUSH1 0x0 DUP1 REVERT JUMPDEST PUSH1 0x48 PUSH1 0x76 JUMP JUMPDEST PUSH1 0x40 MLOAD PUSH1 0x53 SWAP2 SWAP1 PUSH1 0x9A JUMP JUMPDEST PUSH1 0x40 MLOAD DUP1 SWAP2 SUB SWAP1 RETURN JUMPDEST PUSH1 0x62 PUSH1 0x7E JUMP JUMPDEST PUSH1 0x40 MLOAD PUSH1 0x6D SWAP2 SWAP1 PUSH1 0x9A JUMP JUMPDEST PUSH1 0x40 MLOAD DUP1 SWAP2 SUB SWAP1 RETURN JUMPDEST PUSH4 0x1E13380 DUP2 JUMP JUMPDEST PUSH1 0x5 DUP2 JUMP JUMPDEST PUSH1 0x0 DUP2 SWAP1 POP SWAP2 SWAP1 POP JUMP JUMPDEST PUSH1 0x94 DUP2 PUSH1 0x83 JUMP JUMPDEST DUP3 MSTORE POP POP JUMP JUMPDEST PUSH1 0x0 PUSH1 0x20 DUP3 ADD SWAP1 POP PUSH1 0xAD PUSH1 0x0 DUP4 ADD DUP5 PUSH1 0x8D JUMP JUMPDEST SWAP3 SWAP2 POP POP JUMP INVALID LOG2 PUSH5 0x6970667358 0x22 SLT KECCAK256 DUP5 LOG0 ADDMOD SMOD 0xD2 0x1F PUSH7 0xBDB7830CE3F6E7 0xC1 PUSH13 0xCFB0C185B88675D9107ED19BEC 0xAD REVERT 0xC9 PUSH5 0x736F6C6343 STOP ADDMOD EQ STOP CALLER "},"methodIdentifiers":{"INTEREST_RATE_PER_YEAR()":"eac1377f","SECONDS_IN_A_YEAR()":"c4fa17a4"}}}}}