{
  "_format": "hh-sol-artifact-1",
  "contractName": "CDPHelper",
  "sourceName": "contracts/libraries/CDPHelper.sol",
  "abi": [
    {
      "inputs": [],
      "name": "INTEREST_RATE_PER_YEAR",
      "outputs": [
        {
          "internalType": "uint256",
          "name": "",
          "type": "uint256"
        }
      ],
      "stateMutability": "view",
      "type": "function"
    },
    {
      "inputs": [],
      "name": "SECONDS_IN_A_YEAR",
      "outputs": [
        {
          "internalType": "uint256",
          "name": "",
          "type": "uint256"
        }
      ],
      "stateMutability": "view",
      "type": "function"
    }
  ],
  "bytecode": "0x60e9610052600b82828239805160001a607314610045577f4e487b7100000000000000000000000000000000000000000000000000000000600052600060045260246000fd5b30600052607381538281f3fe7300000000000000000000000000000000000000003014608060405260043610603d5760003560e01c8063c4fa17a4146042578063eac1377f14605c575b600080fd5b60486076565b60405160539190609a565b60405180910390f35b6062607e565b604051606d9190609a565b60405180910390f35b6301e1338081565b600581565b6000819050919050565b6094816083565b82525050565b600060208201905060ad6000830184608d565b9291505056fea264697066735822122084a00807d21f66bdb7830ce3f6e7c16ccfb0c185b88675d9107ed19becadfdc964736f6c63430008140033",
  "linkReferences": {},
  "deployedLinkReferences": {}
}